{
  "contractName": "UBPP",
  "abi": [
    {
      "constant": true,
      "inputs": [],
      "name": "name",
      "outputs": [
        {
          "name": "",
          "type": "string"
        }
      ],
      "payable": false,
      "stateMutability": "view",
      "type": "function",
      "signature": "0x06fdde03"
    },
    {
      "constant": true,
      "inputs": [],
      "name": "eno",
      "outputs": [
        {
          "name": "",
          "type": "string"
        }
      ],
      "payable": false,
      "stateMutability": "view",
      "type": "function",
      "signature": "0x077a5c7d"
    },
    {
      "constant": true,
      "inputs": [],
      "name": "height",
      "outputs": [
        {
          "name": "",
          "type": "string"
        }
      ],
      "payable": false,
      "stateMutability": "view",
      "type": "function",
      "signature": "0x0ef26743"
    },
    {
      "constant": true,
      "inputs": [],
      "name": "all",
      "outputs": [
        {
          "name": "",
          "type": "string"
        }
      ],
      "payable": false,
      "stateMutability": "view",
      "type": "function",
      "signature": "0x10c4e8b0"
    },
    {
      "constant": true,
      "inputs": [
        {
          "name": "",
          "type": "uint256"
        }
      ],
      "name": "docs",
      "outputs": [
        {
          "name": "id",
          "type": "uint256"
        },
        {
          "name": "hash",
          "type": "string"
        },
        {
          "name": "description",
          "type": "string"
        },
        {
          "name": "tipAmount",
          "type": "uint256"
        },
        {
          "name": "author",
          "type": "address"
        }
      ],
      "payable": false,
      "stateMutability": "view",
      "type": "function",
      "signature": "0x23389c5a"
    },
    {
      "constant": true,
      "inputs": [],
      "name": "pres",
      "outputs": [
        {
          "name": "",
          "type": "string"
        }
      ],
      "payable": false,
      "stateMutability": "view",
      "type": "function",
      "signature": "0x2e029c0f"
    },
    {
      "constant": true,
      "inputs": [],
      "name": "date",
      "outputs": [
        {
          "name": "",
          "type": "string"
        }
      ],
      "payable": false,
      "stateMutability": "view",
      "type": "function",
      "signature": "0x323046b1"
    },
    {
      "constant": true,
      "inputs": [],
      "name": "ename",
      "outputs": [
        {
          "name": "",
          "type": "string"
        }
      ],
      "payable": false,
      "stateMutability": "view",
      "type": "function",
      "signature": "0x3655aa00"
    },
    {
      "constant": true,
      "inputs": [],
      "name": "docCount",
      "outputs": [
        {
          "name": "",
          "type": "uint256"
        }
      ],
      "payable": false,
      "stateMutability": "view",
      "type": "function",
      "signature": "0x4c4dc6e0"
    },
    {
      "constant": true,
      "inputs": [],
      "name": "mform",
      "outputs": [
        {
          "name": "formname",
          "type": "string"
        }
      ],
      "payable": false,
      "stateMutability": "view",
      "type": "function",
      "signature": "0x5586fab2"
    },
    {
      "constant": true,
      "inputs": [],
      "name": "mformCount",
      "outputs": [
        {
          "name": "",
          "type": "uint256"
        }
      ],
      "payable": false,
      "stateMutability": "view",
      "type": "function",
      "signature": "0x690fa5f2"
    },
    {
      "constant": true,
      "inputs": [],
      "name": "gender",
      "outputs": [
        {
          "name": "",
          "type": "string"
        }
      ],
      "payable": false,
      "stateMutability": "view",
      "type": "function",
      "signature": "0x79caad86"
    },
    {
      "constant": true,
      "inputs": [],
      "name": "sym",
      "outputs": [
        {
          "name": "",
          "type": "string"
        }
      ],
      "payable": false,
      "stateMutability": "view",
      "type": "function",
      "signature": "0x83813a28"
    },
    {
      "constant": true,
      "inputs": [
        {
          "name": "",
          "type": "uint256"
        }
      ],
      "name": "images",
      "outputs": [
        {
          "name": "id",
          "type": "uint256"
        },
        {
          "name": "hash",
          "type": "string"
        },
        {
          "name": "description",
          "type": "string"
        },
        {
          "name": "tipAmount",
          "type": "uint256"
        },
        {
          "name": "author",
          "type": "address"
        }
      ],
      "payable": false,
      "stateMutability": "view",
      "type": "function",
      "signature": "0x84856482"
    },
    {
      "constant": true,
      "inputs": [],
      "name": "fullname",
      "outputs": [
        {
          "name": "",
          "type": "string"
        }
      ],
      "payable": false,
      "stateMutability": "view",
      "type": "function",
      "signature": "0x8ef490ea"
    },
    {
      "constant": true,
      "inputs": [],
      "name": "imageCount",
      "outputs": [
        {
          "name": "",
          "type": "uint256"
        }
      ],
      "payable": false,
      "stateMutability": "view",
      "type": "function",
      "signature": "0x92053b63"
    },
    {
      "constant": true,
      "inputs": [],
      "name": "his",
      "outputs": [
        {
          "name": "",
          "type": "string"
        }
      ],
      "payable": false,
      "stateMutability": "view",
      "type": "function",
      "signature": "0x9449834f"
    },
    {
      "constant": true,
      "inputs": [],
      "name": "blood",
      "outputs": [
        {
          "name": "",
          "type": "string"
        }
      ],
      "payable": false,
      "stateMutability": "view",
      "type": "function",
      "signature": "0x97f8f0ec"
    },
    {
      "constant": true,
      "inputs": [],
      "name": "vacc",
      "outputs": [
        {
          "name": "",
          "type": "string"
        }
      ],
      "payable": false,
      "stateMutability": "view",
      "type": "function",
      "signature": "0x98c1eaf3"
    },
    {
      "constant": true,
      "inputs": [],
      "name": "mail",
      "outputs": [
        {
          "name": "",
          "type": "string"
        }
      ],
      "payable": false,
      "stateMutability": "view",
      "type": "function",
      "signature": "0x9a68308f"
    },
    {
      "constant": true,
      "inputs": [],
      "name": "phno",
      "outputs": [
        {
          "name": "",
          "type": "string"
        }
      ],
      "payable": false,
      "stateMutability": "view",
      "type": "function",
      "signature": "0x9e96883d"
    },
    {
      "constant": true,
      "inputs": [
        {
          "name": "",
          "type": "uint256"
        }
      ],
      "name": "mforms",
      "outputs": [
        {
          "name": "formname",
          "type": "string"
        }
      ],
      "payable": false,
      "stateMutability": "view",
      "type": "function",
      "signature": "0xa1787db5"
    },
    {
      "constant": true,
      "inputs": [],
      "name": "weight",
      "outputs": [
        {
          "name": "",
          "type": "string"
        }
      ],
      "payable": false,
      "stateMutability": "view",
      "type": "function",
      "signature": "0xa1aab33f"
    },
    {
      "constant": true,
      "inputs": [],
      "name": "ex",
      "outputs": [
        {
          "name": "",
          "type": "string"
        }
      ],
      "payable": false,
      "stateMutability": "view",
      "type": "function",
      "signature": "0xe1c34549"
    },
    {
      "constant": true,
      "inputs": [],
      "name": "trav",
      "outputs": [
        {
          "name": "",
          "type": "string"
        }
      ],
      "payable": false,
      "stateMutability": "view",
      "type": "function",
      "signature": "0xff4cb445"
    },
    {
      "inputs": [],
      "payable": false,
      "stateMutability": "nonpayable",
      "type": "constructor",
      "signature": "constructor"
    },
    {
      "anonymous": false,
      "inputs": [
        {
          "indexed": false,
          "name": "id",
          "type": "uint256"
        },
        {
          "indexed": false,
          "name": "hash",
          "type": "string"
        },
        {
          "indexed": false,
          "name": "description",
          "type": "string"
        },
        {
          "indexed": false,
          "name": "tipAmount",
          "type": "uint256"
        },
        {
          "indexed": false,
          "name": "author",
          "type": "address"
        }
      ],
      "name": "ImageCreated",
      "type": "event",
      "signature": "0xc1d8dfa99b3f84f95d3f0bc4a768addeb97b83b20aef7f9cb6729e126bafd2f9"
    },
    {
      "anonymous": false,
      "inputs": [
        {
          "indexed": false,
          "name": "id",
          "type": "uint256"
        },
        {
          "indexed": false,
          "name": "hash",
          "type": "string"
        },
        {
          "indexed": false,
          "name": "description",
          "type": "string"
        },
        {
          "indexed": false,
          "name": "tipAmount",
          "type": "uint256"
        },
        {
          "indexed": false,
          "name": "author",
          "type": "address"
        }
      ],
      "name": "DocCreated",
      "type": "event",
      "signature": "0x482217135058e854014aaee18e6d754e419c855f1ee108e1aa7c531049dffff0"
    },
    {
      "anonymous": false,
      "inputs": [
        {
          "indexed": false,
          "name": "id",
          "type": "uint256"
        },
        {
          "indexed": false,
          "name": "hash",
          "type": "string"
        },
        {
          "indexed": false,
          "name": "description",
          "type": "string"
        },
        {
          "indexed": false,
          "name": "tipAmount",
          "type": "uint256"
        },
        {
          "indexed": false,
          "name": "author",
          "type": "address"
        }
      ],
      "name": "ImageTipped",
      "type": "event",
      "signature": "0x1be5317bca8d3f70dc1efe89958be71bff36cdca33fc00a6423e25eb2f1d492f"
    },
    {
      "anonymous": false,
      "inputs": [
        {
          "indexed": false,
          "name": "name",
          "type": "string"
        },
        {
          "indexed": false,
          "name": "author",
          "type": "address"
        }
      ],
      "name": "NameCreated",
      "type": "event",
      "signature": "0x08b4c8af27fbcbcf557247224b89dddcdba81916cc5b733ed4abb75141eb12d0"
    },
    {
      "anonymous": false,
      "inputs": [
        {
          "indexed": false,
          "name": "fullname",
          "type": "string"
        },
        {
          "indexed": false,
          "name": "mail",
          "type": "string"
        },
        {
          "indexed": false,
          "name": "phno",
          "type": "string"
        },
        {
          "indexed": false,
          "name": "gender",
          "type": "string"
        },
        {
          "indexed": false,
          "name": "date",
          "type": "string"
        },
        {
          "indexed": false,
          "name": "height",
          "type": "string"
        },
        {
          "indexed": false,
          "name": "weight",
          "type": "string"
        },
        {
          "indexed": false,
          "name": "blood",
          "type": "string"
        },
        {
          "indexed": false,
          "name": "vacc",
          "type": "string"
        },
        {
          "indexed": false,
          "name": "all",
          "type": "string"
        },
        {
          "indexed": false,
          "name": "pres",
          "type": "string"
        },
        {
          "indexed": false,
          "name": "sym",
          "type": "string"
        },
        {
          "indexed": false,
          "name": "trav",
          "type": "string"
        },
        {
          "indexed": false,
          "name": "his",
          "type": "string"
        },
        {
          "indexed": false,
          "name": "ename",
          "type": "string"
        },
        {
          "indexed": false,
          "name": "eno",
          "type": "string"
        },
        {
          "indexed": false,
          "name": "ex",
          "type": "string"
        },
        {
          "indexed": false,
          "name": "author",
          "type": "address"
        }
      ],
      "name": "FormCreated",
      "type": "event",
      "signature": "0xa79b47ec3c9826670503cd1934676eddc59f70eaf1374e6bb6458a7d0dc94c23"
    },
    {
      "constant": false,
      "inputs": [],
      "name": "testfunc",
      "outputs": [
        {
          "name": "",
          "type": "string"
        }
      ],
      "payable": false,
      "stateMutability": "nonpayable",
      "type": "function",
      "signature": "0x0b39dbc6"
    },
    {
      "constant": false,
      "inputs": [
        {
          "name": "_imgHash",
          "type": "string"
        },
        {
          "name": "_description",
          "type": "string"
        }
      ],
      "name": "uploadImage",
      "outputs": [],
      "payable": false,
      "stateMutability": "nonpayable",
      "type": "function",
      "signature": "0xa91b8314"
    },
    {
      "constant": false,
      "inputs": [
        {
          "name": "_name",
          "type": "string"
        }
      ],
      "name": "uploadName",
      "outputs": [
        {
          "name": "",
          "type": "string"
        }
      ],
      "payable": false,
      "stateMutability": "nonpayable",
      "type": "function",
      "signature": "0x30019dca"
    },
    {
      "constant": false,
      "inputs": [
        {
          "name": "_name",
          "type": "string"
        }
      ],
      "name": "uploadPhno",
      "outputs": [
        {
          "name": "",
          "type": "string"
        }
      ],
      "payable": false,
      "stateMutability": "nonpayable",
      "type": "function",
      "signature": "0xcee481cf"
    },
    {
      "constant": false,
      "inputs": [
        {
          "name": "_name",
          "type": "string"
        }
      ],
      "name": "uploadGender",
      "outputs": [
        {
          "name": "",
          "type": "string"
        }
      ],
      "payable": false,
      "stateMutability": "nonpayable",
      "type": "function",
      "signature": "0x3ae91160"
    },
    {
      "constant": false,
      "inputs": [
        {
          "name": "user_input",
          "type": "string[]"
        }
      ],
      "name": "uploadMedicalForm",
      "outputs": [],
      "payable": false,
      "stateMutability": "nonpayable",
      "type": "function",
      "signature": "0x1ca73b8a"
    },
    {
      "constant": false,
      "inputs": [
        {
          "name": "_docHash",
          "type": "string"
        },
        {
          "name": "_description",
          "type": "string"
        }
      ],
      "name": "uploadDoc",
      "outputs": [],
      "payable": false,
      "stateMutability": "nonpayable",
      "type": "function",
      "signature": "0x2887425c"
    },
    {
      "constant": false,
      "inputs": [
        {
          "name": "_id",
          "type": "uint256"
        }
      ],
      "name": "tipImageOwner",
      "outputs": [],
      "payable": true,
      "stateMutability": "payable",
      "type": "function",
      "signature": "0x8567ade8"
    }
  ],
  "bytecode": "0x60806040526000600155600060025560006003556040805190810160405280600a81526020017f756e616e737765726564000000000000000000000000000000000000000000008152506007908051906020019062000060929190620005a3565b506040805190810160405280600a81526020017f756e616e7377657265640000000000000000000000000000000000000000000081525060089080519060200190620000ae929190620005a3565b506040805190810160405280600a81526020017f756e616e7377657265640000000000000000000000000000000000000000000081525060099080519060200190620000fc929190620005a3565b506040805190810160405280600a81526020017f756e616e73776572656400000000000000000000000000000000000000000000815250600a90805190602001906200014a929190620005a3565b506040805190810160405280600a81526020017f756e616e73776572656400000000000000000000000000000000000000000000815250600b908051906020019062000198929190620005a3565b506040805190810160405280600a81526020017f756e616e73776572656400000000000000000000000000000000000000000000815250600c9080519060200190620001e6929190620005a3565b506040805190810160405280600a81526020017f756e616e73776572656400000000000000000000000000000000000000000000815250600d908051906020019062000234929190620005a3565b506040805190810160405280600a81526020017f756e616e73776572656400000000000000000000000000000000000000000000815250600e908051906020019062000282929190620005a3565b506040805190810160405280600a81526020017f756e616e73776572656400000000000000000000000000000000000000000000815250600f9080519060200190620002d0929190620005a3565b506040805190810160405280600a81526020017f756e616e73776572656400000000000000000000000000000000000000000000815250601090805190602001906200031e929190620005a3565b506040805190810160405280600a81526020017f756e616e73776572656400000000000000000000000000000000000000000000815250601190805190602001906200036c929190620005a3565b506040805190810160405280600a81526020017f756e616e7377657265640000000000000000000000000000000000000000000081525060129080519060200190620003ba929190620005a3565b506040805190810160405280600a81526020017f756e616e737765726564000000000000000000000000000000000000000000008152506013908051906020019062000408929190620005a3565b506040805190810160405280600a81526020017f756e616e737765726564000000000000000000000000000000000000000000008152506014908051906020019062000456929190620005a3565b506040805190810160405280600a81526020017f756e616e7377657265640000000000000000000000000000000000000000000081525060159080519060200190620004a4929190620005a3565b506040805190810160405280600a81526020017f756e616e7377657265640000000000000000000000000000000000000000000081525060169080519060200190620004f2929190620005a3565b506040805190810160405280600a81526020017f756e616e737765726564000000000000000000000000000000000000000000008152506017908051906020019062000540929190620005a3565b503480156200054e57600080fd5b506040805190810160405280600481526020017f5542505000000000000000000000000000000000000000000000000000000000815250600090805190602001906200059c929190620005a3565b5062000652565b828054600181600116156101000203166002900490600052602060002090601f016020900481019282601f10620005e657805160ff191683800117855562000617565b8280016001018555821562000617579182015b8281111562000616578251825591602001919060010190620005f9565b5b5090506200062691906200062a565b5090565b6200064f91905b808211156200064b57600081600090555060010162000631565b5090565b90565b612c5f80620006626000396000f3fe6080604052600436106101a1576000357c0100000000000000000000000000000000000000000000000000000000900463ffffffff16806306fdde03146101a6578063077a5c7d146101d15780630b39dbc6146101fc5780630ef267431461022757806310c4e8b0146102525780631ca73b8a1461027d57806323389c5a146102a65780632887425c146102e75780632e029c0f1461031057806330019dca1461033b578063323046b1146103785780633655aa00146103a35780633ae91160146103ce5780634c4dc6e01461040b5780635586fab214610436578063690fa5f21461046157806379caad861461048c57806383813a28146104b757806384856482146104e25780638567ade8146105235780638ef490ea1461053f57806392053b631461056a5780639449834f1461059557806397f8f0ec146105c057806398c1eaf3146105eb5780639a68308f146106165780639e96883d14610641578063a1787db51461066c578063a1aab33f146106a9578063a91b8314146106d4578063cee481cf146106fd578063e1c345491461073a578063ff4cb44514610765575b600080fd5b3480156101b257600080fd5b506101bb610790565b6040516101c89190612996565b60405180910390f35b3480156101dd57600080fd5b506101e661082e565b6040516101f39190612996565b60405180910390f35b34801561020857600080fd5b506102116108cc565b60405161021e91906129b8565b60405180910390f35b34801561023357600080fd5b5061023c61096e565b6040516102499190612996565b60405180910390f35b34801561025e57600080fd5b50610267610a0c565b6040516102749190612996565b60405180910390f35b34801561028957600080fd5b506102a4600480360361029f91908101906127e6565b610aaa565b005b3480156102b257600080fd5b506102cd60048036036102c891908101906128d4565b610e08565b6040516102de959493929190612a56565b60405180910390f35b3480156102f357600080fd5b5061030e60048036036103099190810190612868565b610f8e565b005b34801561031c57600080fd5b506103256110ee565b6040516103329190612996565b60405180910390f35b34801561034757600080fd5b50610362600480360361035d9190810190612827565b61118c565b60405161036f91906129b8565b60405180910390f35b34801561038457600080fd5b5061038d6112ea565b60405161039a9190612996565b60405180910390f35b3480156103af57600080fd5b506103b8611388565b6040516103c59190612996565b60405180910390f35b3480156103da57600080fd5b506103f560048036036103f09190810190612827565b611426565b60405161040291906129b8565b60405180910390f35b34801561041757600080fd5b50610420611584565b60405161042d91906129da565b60405180910390f35b34801561044257600080fd5b5061044b61158a565b6040516104589190612996565b60405180910390f35b34801561046d57600080fd5b5061047661162e565b60405161048391906129da565b60405180910390f35b34801561049857600080fd5b506104a1611634565b6040516104ae9190612996565b60405180910390f35b3480156104c357600080fd5b506104cc6116d2565b6040516104d99190612996565b60405180910390f35b3480156104ee57600080fd5b50610509600480360361050491908101906128d4565b611770565b60405161051a959493929190612a56565b60405180910390f35b61053d600480360361053891908101906128d4565b6118f6565b005b34801561054b57600080fd5b50610554611bfb565b6040516105619190612996565b60405180910390f35b34801561057657600080fd5b5061057f611c99565b60405161058c91906129da565b60405180910390f35b3480156105a157600080fd5b506105aa611c9f565b6040516105b79190612996565b60405180910390f35b3480156105cc57600080fd5b506105d5611d3d565b6040516105e29190612996565b60405180910390f35b3480156105f757600080fd5b50610600611ddb565b60405161060d9190612996565b60405180910390f35b34801561062257600080fd5b5061062b611e79565b6040516106389190612996565b60405180910390f35b34801561064d57600080fd5b50610656611f17565b6040516106639190612996565b60405180910390f35b34801561067857600080fd5b50610693600480360361068e91908101906128d4565b611fb5565b6040516106a09190612996565b60405180910390f35b3480156106b557600080fd5b506106be61206b565b6040516106cb9190612996565b60405180910390f35b3480156106e057600080fd5b506106fb60048036036106f69190810190612868565b612109565b005b34801561070957600080fd5b50610724600480360361071f9190810190612827565b6122ab565b60405161073191906129b8565b60405180910390f35b34801561074657600080fd5b5061074f612409565b60405161075c9190612996565b60405180910390f35b34801561077157600080fd5b5061077a6124a7565b6040516107879190612996565b60405180910390f35b60008054600181600116156101000203166002900480601f0160208091040260200160405190810160405280929190818152602001828054600181600116156101000203166002900480156108265780601f106107fb57610100808354040283529160200191610826565b820191906000526020600020905b81548152906001019060200180831161080957829003601f168201915b505050505081565b60168054600181600116156101000203166002900480601f0160208091040260200160405190810160405280929190818152602001828054600181600116156101000203166002900480156108c45780601f10610899576101008083540402835291602001916108c4565b820191906000526020600020905b8154815290600101906020018083116108a757829003601f168201915b505050505081565b606060078054600181600116156101000203166002900480601f0160208091040260200160405190810160405280929190818152602001828054600181600116156101000203166002900480156109645780601f1061093957610100808354040283529160200191610964565b820191906000526020600020905b81548152906001019060200180831161094757829003601f168201915b5050505050905090565b600c8054600181600116156101000203166002900480601f016020809104026020016040519081016040528092919081815260200182805460018160011615610100020316600290048015610a045780601f106109d957610100808354040283529160200191610a04565b820191906000526020600020905b8154815290600101906020018083116109e757829003601f168201915b505050505081565b60108054600181600116156101000203166002900480601f016020809104026020016040519081016040528092919081815260200182805460018160011615610100020316600290048015610aa25780601f10610a7757610100808354040283529160200191610aa2565b820191906000526020600020905b815481529060010190602001808311610a8557829003601f168201915b505050505081565b600073ffffffffffffffffffffffffffffffffffffffff163373ffffffffffffffffffffffffffffffffffffffff1614151515610ae657600080fd5b806000815181101515610af557fe5b9060200190602002015160079080519060200190610b14929190612545565b50806001815181101515610b2457fe5b9060200190602002015160089080519060200190610b43929190612545565b50806002815181101515610b5357fe5b9060200190602002015160099080519060200190610b72929190612545565b50806003815181101515610b8257fe5b90602001906020020151600a9080519060200190610ba1929190612545565b50806004815181101515610bb157fe5b90602001906020020151600b9080519060200190610bd0929190612545565b50806005815181101515610be057fe5b90602001906020020151600c9080519060200190610bff929190612545565b50806006815181101515610c0f57fe5b90602001906020020151600d9080519060200190610c2e929190612545565b50806007815181101515610c3e57fe5b90602001906020020151600e9080519060200190610c5d929190612545565b50806008815181101515610c6d57fe5b90602001906020020151600f9080519060200190610c8c929190612545565b50806009815181101515610c9c57fe5b9060200190602002015160109080519060200190610cbb929190612545565b5080600a815181101515610ccb57fe5b9060200190602002015160119080519060200190610cea929190612545565b5080600b815181101515610cfa57fe5b9060200190602002015160129080519060200190610d19929190612545565b5080600c815181101515610d2957fe5b9060200190602002015160139080519060200190610d48929190612545565b5080600d815181101515610d5857fe5b9060200190602002015160149080519060200190610d77929190612545565b5080600e815181101515610d8757fe5b9060200190602002015160159080519060200190610da6929190612545565b5080600f815181101515610db657fe5b9060200190602002015160169080519060200190610dd5929190612545565b50806010815181101515610de557fe5b9060200190602002015160179080519060200190610e04929190612545565b5050565b6005602052806000526040600020600091509050806000015490806001018054600181600116156101000203166002900480601f016020809104026020016040519081016040528092919081815260200182805460018160011615610100020316600290048015610eba5780601f10610e8f57610100808354040283529160200191610eba565b820191906000526020600020905b815481529060010190602001808311610e9d57829003601f168201915b505050505090806002018054600181600116156101000203166002900480601f016020809104026020016040519081016040528092919081815260200182805460018160011615610100020316600290048015610f585780601f10610f2d57610100808354040283529160200191610f58565b820191906000526020600020905b815481529060010190602001808311610f3b57829003601f168201915b5050505050908060030154908060040160009054906101000a900473ffffffffffffffffffffffffffffffffffffffff16905085565b60008251111515610f9e57600080fd5b60008151111515610fae57600080fd5b600073ffffffffffffffffffffffffffffffffffffffff163373ffffffffffffffffffffffffffffffffffffffff1614151515610fea57600080fd5b60026000815480929190600101919050555060a0604051908101604052806002548152602001838152602001828152602001600081526020013373ffffffffffffffffffffffffffffffffffffffff168152506005600060025481526020019081526020016000206000820151816000015560208201518160010190805190602001906110789291906125c5565b5060408201518160020190805190602001906110959291906125c5565b506060820151816003015560808201518160040160006101000a81548173ffffffffffffffffffffffffffffffffffffffff021916908373ffffffffffffffffffffffffffffffffffffffff1602179055509050505050565b60118054600181600116156101000203166002900480601f0160208091040260200160405190810160405280929190818152602001828054600181600116156101000203166002900480156111845780601f1061115957610100808354040283529160200191611184565b820191906000526020600020905b81548152906001019060200180831161116757829003601f168201915b505050505081565b60606000825111151561119e57600080fd5b600360008154809291906001019190505550600073ffffffffffffffffffffffffffffffffffffffff163373ffffffffffffffffffffffffffffffffffffffff16141515156111ec57600080fd5b60206040519081016040528083815250600660006003548152602001908152602001600020600082015181600001908051906020019061122d9291906125c5565b509050508160079080519060200190611247929190612545565b5060078054600181600116156101000203166002900480601f0160208091040260200160405190810160405280929190818152602001828054600181600116156101000203166002900480156112de5780601f106112b3576101008083540402835291602001916112de565b820191906000526020600020905b8154815290600101906020018083116112c157829003601f168201915b50505050509050919050565b600b8054600181600116156101000203166002900480601f0160208091040260200160405190810160405280929190818152602001828054600181600116156101000203166002900480156113805780601f1061135557610100808354040283529160200191611380565b820191906000526020600020905b81548152906001019060200180831161136357829003601f168201915b505050505081565b60158054600181600116156101000203166002900480601f01602080910402602001604051908101604052809291908181526020018280546001816001161561010002031660029004801561141e5780601f106113f35761010080835404028352916020019161141e565b820191906000526020600020905b81548152906001019060200180831161140157829003601f168201915b505050505081565b60606000825111151561143857600080fd5b600360008154809291906001019190505550600073ffffffffffffffffffffffffffffffffffffffff163373ffffffffffffffffffffffffffffffffffffffff161415151561148657600080fd5b6020604051908101604052808381525060066000600354815260200190815260200160002060008201518160000190805190602001906114c79291906125c5565b5090505081600a90805190602001906114e1929190612545565b50600a8054600181600116156101000203166002900480601f0160208091040260200160405190810160405280929190818152602001828054600181600116156101000203166002900480156115785780601f1061154d57610100808354040283529160200191611578565b820191906000526020600020905b81548152906001019060200180831161155b57829003601f168201915b50505050509050919050565b60025481565b6018806000018054600181600116156101000203166002900480601f0160208091040260200160405190810160405280929190818152602001828054600181600116156101000203166002900480156116245780601f106115f957610100808354040283529160200191611624565b820191906000526020600020905b81548152906001019060200180831161160757829003601f168201915b5050505050905081565b60035481565b600a8054600181600116156101000203166002900480601f0160208091040260200160405190810160405280929190818152602001828054600181600116156101000203166002900480156116ca5780601f1061169f576101008083540402835291602001916116ca565b820191906000526020600020905b8154815290600101906020018083116116ad57829003601f168201915b505050505081565b60128054600181600116156101000203166002900480601f0160208091040260200160405190810160405280929190818152602001828054600181600116156101000203166002900480156117685780601f1061173d57610100808354040283529160200191611768565b820191906000526020600020905b81548152906001019060200180831161174b57829003601f168201915b505050505081565b6004602052806000526040600020600091509050806000015490806001018054600181600116156101000203166002900480601f0160208091040260200160405190810160405280929190818152602001828054600181600116156101000203166002900480156118225780601f106117f757610100808354040283529160200191611822565b820191906000526020600020905b81548152906001019060200180831161180557829003601f168201915b505050505090806002018054600181600116156101000203166002900480601f0160208091040260200160405190810160405280929190818152602001828054600181600116156101000203166002900480156118c05780601f10611895576101008083540402835291602001916118c0565b820191906000526020600020905b8154815290600101906020018083116118a357829003601f168201915b5050505050908060030154908060040160009054906101000a900473ffffffffffffffffffffffffffffffffffffffff16905085565b60008111801561190857506001548111155b151561191357600080fd5b61191b612645565b6004600083815260200190815260200160002060a0604051908101604052908160008201548152602001600182018054600181600116156101000203166002900480601f0160208091040260200160405190810160405280929190818152602001828054600181600116156101000203166002900480156119dd5780601f106119b2576101008083540402835291602001916119dd565b820191906000526020600020905b8154815290600101906020018083116119c057829003601f168201915b50505050508152602001600282018054600181600116156101000203166002900480601f016020809104026020016040519081016040528092919081815260200182805460018160011615610100020316600290048015611a7f5780601f10611a5457610100808354040283529160200191611a7f565b820191906000526020600020905b815481529060010190602001808311611a6257829003601f168201915b50505050508152602001600382015481526020016004820160009054906101000a900473ffffffffffffffffffffffffffffffffffffffff1673ffffffffffffffffffffffffffffffffffffffff1673ffffffffffffffffffffffffffffffffffffffff168152505090506000816080015190508073ffffffffffffffffffffffffffffffffffffffff166108fc349081150290604051600060405180830381858888f19350505050158015611b39573d6000803e3d6000fd5b50348260600151018260600181815250508160046000858152602001908152602001600020600082015181600001556020820151816001019080519060200190611b849291906125c5565b506040820151816002019080519060200190611ba19291906125c5565b506060820151816003015560808201518160040160006101000a81548173ffffffffffffffffffffffffffffffffffffffff021916908373ffffffffffffffffffffffffffffffffffffffff160217905550905050505050565b60078054600181600116156101000203166002900480601f016020809104026020016040519081016040528092919081815260200182805460018160011615610100020316600290048015611c915780601f10611c6657610100808354040283529160200191611c91565b820191906000526020600020905b815481529060010190602001808311611c7457829003601f168201915b505050505081565b60015481565b60148054600181600116156101000203166002900480601f016020809104026020016040519081016040528092919081815260200182805460018160011615610100020316600290048015611d355780601f10611d0a57610100808354040283529160200191611d35565b820191906000526020600020905b815481529060010190602001808311611d1857829003601f168201915b505050505081565b600e8054600181600116156101000203166002900480601f016020809104026020016040519081016040528092919081815260200182805460018160011615610100020316600290048015611dd35780601f10611da857610100808354040283529160200191611dd3565b820191906000526020600020905b815481529060010190602001808311611db657829003601f168201915b505050505081565b600f8054600181600116156101000203166002900480601f016020809104026020016040519081016040528092919081815260200182805460018160011615610100020316600290048015611e715780601f10611e4657610100808354040283529160200191611e71565b820191906000526020600020905b815481529060010190602001808311611e5457829003601f168201915b505050505081565b60088054600181600116156101000203166002900480601f016020809104026020016040519081016040528092919081815260200182805460018160011615610100020316600290048015611f0f5780601f10611ee457610100808354040283529160200191611f0f565b820191906000526020600020905b815481529060010190602001808311611ef257829003601f168201915b505050505081565b60098054600181600116156101000203166002900480601f016020809104026020016040519081016040528092919081815260200182805460018160011615610100020316600290048015611fad5780601f10611f8257610100808354040283529160200191611fad565b820191906000526020600020905b815481529060010190602001808311611f9057829003601f168201915b505050505081565b6006602052806000526040600020600091509050806000018054600181600116156101000203166002900480601f0160208091040260200160405190810160405280929190818152602001828054600181600116156101000203166002900480156120615780601f1061203657610100808354040283529160200191612061565b820191906000526020600020905b81548152906001019060200180831161204457829003601f168201915b5050505050905081565b600d8054600181600116156101000203166002900480601f0160208091040260200160405190810160405280929190818152602001828054600181600116156101000203166002900480156121015780601f106120d657610100808354040283529160200191612101565b820191906000526020600020905b8154815290600101906020018083116120e457829003601f168201915b505050505081565b6000825111151561211957600080fd5b6000815111151561212957600080fd5b600073ffffffffffffffffffffffffffffffffffffffff163373ffffffffffffffffffffffffffffffffffffffff161415151561216557600080fd5b60016000815480929190600101919050555060a0604051908101604052806001548152602001838152602001828152602001600081526020013373ffffffffffffffffffffffffffffffffffffffff168152506004600060015481526020019081526020016000206000820151816000015560208201518160010190805190602001906121f39291906125c5565b5060408201518160020190805190602001906122109291906125c5565b506060820151816003015560808201518160040160006101000a81548173ffffffffffffffffffffffffffffffffffffffff021916908373ffffffffffffffffffffffffffffffffffffffff1602179055509050507fc1d8dfa99b3f84f95d3f0bc4a768addeb97b83b20aef7f9cb6729e126bafd2f9600154838360003360405161229f9594939291906129f5565b60405180910390a15050565b6060600082511115156122bd57600080fd5b600360008154809291906001019190505550600073ffffffffffffffffffffffffffffffffffffffff163373ffffffffffffffffffffffffffffffffffffffff161415151561230b57600080fd5b60206040519081016040528083815250600660006003548152602001908152602001600020600082015181600001908051906020019061234c9291906125c5565b509050508160099080519060200190612366929190612545565b5060098054600181600116156101000203166002900480601f0160208091040260200160405190810160405280929190818152602001828054600181600116156101000203166002900480156123fd5780601f106123d2576101008083540402835291602001916123fd565b820191906000526020600020905b8154815290600101906020018083116123e057829003601f168201915b50505050509050919050565b60178054600181600116156101000203166002900480601f01602080910402602001604051908101604052809291908181526020018280546001816001161561010002031660029004801561249f5780601f106124745761010080835404028352916020019161249f565b820191906000526020600020905b81548152906001019060200180831161248257829003601f168201915b505050505081565b60138054600181600116156101000203166002900480601f01602080910402602001604051908101604052809291908181526020018280546001816001161561010002031660029004801561253d5780601f106125125761010080835404028352916020019161253d565b820191906000526020600020905b81548152906001019060200180831161252057829003601f168201915b505050505081565b828054600181600116156101000203166002900490600052602060002090601f016020900481019282601f1061258657805160ff19168380011785556125b4565b828001600101855582156125b4579182015b828111156125b3578251825591602001919060010190612598565b5b5090506125c1919061268b565b5090565b828054600181600116156101000203166002900490600052602060002090601f016020900481019282601f1061260657805160ff1916838001178555612634565b82800160010185558215612634579182015b82811115612633578251825591602001919060010190612618565b5b509050612641919061268b565b5090565b60a06040519081016040528060008152602001606081526020016060815260200160008152602001600073ffffffffffffffffffffffffffffffffffffffff1681525090565b6126ad91905b808211156126a9576000816000905550600101612691565b5090565b90565b600082601f83011215156126c357600080fd5b81356126d66126d182612ae4565b612ab7565b9150818183526020840193506020810190508360005b8381101561271c57813586016127028882612726565b8452602084019350602083019250506001810190506126ec565b5050505092915050565b600082601f830112151561273957600080fd5b813561274c61274782612b0c565b612ab7565b9150808252602083016020830185838301111561276857600080fd5b612773838284612bd2565b50505092915050565b600082601f830112151561278f57600080fd5b81356127a261279d82612b38565b612ab7565b915080825260208301602083018583830111156127be57600080fd5b6127c9838284612bd2565b50505092915050565b60006127de8235612bb6565b905092915050565b6000602082840312156127f857600080fd5b600082013567ffffffffffffffff81111561281257600080fd5b61281e848285016126b0565b91505092915050565b60006020828403121561283957600080fd5b600082013567ffffffffffffffff81111561285357600080fd5b61285f8482850161277c565b91505092915050565b6000806040838503121561287b57600080fd5b600083013567ffffffffffffffff81111561289557600080fd5b6128a18582860161277c565b925050602083013567ffffffffffffffff8111156128be57600080fd5b6128ca8582860161277c565b9150509250929050565b6000602082840312156128e657600080fd5b60006128f4848285016127d2565b91505092915050565b61290681612b7a565b82525050565b61291581612bc0565b82525050565b600061292682612b6f565b80845261293a816020860160208601612be1565b61294381612c14565b602085010191505092915050565b600061295c82612b64565b808452612970816020860160208601612be1565b61297981612c14565b602085010191505092915050565b61299081612bac565b82525050565b600060208201905081810360008301526129b08184612951565b905092915050565b600060208201905081810360008301526129d2818461291b565b905092915050565b60006020820190506129ef6000830184612987565b92915050565b600060a082019050612a0a6000830188612987565b8181036020830152612a1c818761291b565b90508181036040830152612a30818661291b565b9050612a3f606083018561290c565b612a4c60808301846128fd565b9695505050505050565b600060a082019050612a6b6000830188612987565b8181036020830152612a7d8187612951565b90508181036040830152612a918186612951565b9050612aa06060830185612987565b612aad60808301846128fd565b9695505050505050565b6000604051905081810181811067ffffffffffffffff82111715612ada57600080fd5b8060405250919050565b600067ffffffffffffffff821115612afb57600080fd5b602082029050602081019050919050565b600067ffffffffffffffff821115612b2357600080fd5b601f19601f8301169050602081019050919050565b600067ffffffffffffffff821115612b4f57600080fd5b601f19601f8301169050602081019050919050565b600081519050919050565b600081519050919050565b6000612b8582612b8c565b9050919050565b600073ffffffffffffffffffffffffffffffffffffffff82169050919050565b6000819050919050565b6000819050919050565b6000612bcb82612bac565b9050919050565b82818337600083830152505050565b60005b83811015612bff578082015181840152602081019050612be4565b83811115612c0e576000848401525b50505050565b6000601f19601f830116905091905056fea265627a7a723058208122ad16369a288558af1e8ca103d18055b4007f10138399787843f4661ca3486c6578706572696d656e74616cf50037",
  "source": "pragma solidity ^0.5.0;\r\npragma experimental ABIEncoderV2;\r\n\r\ncontract UBPP {\r\n  string public name;\r\n  uint public imageCount = 0;\r\n  uint public docCount = 0;\r\n  uint public mformCount = 0;\r\n  mapping(uint => Image) public images;\r\n  mapping(uint => Doc) public docs;\r\n  mapping(uint => Form) public mforms;\r\n  string public fullname = 'unanswered';\r\n  string public mail = 'unanswered';\r\n  string public phno = 'unanswered';\r\n  string public gender = 'unanswered';\r\n  string public date = 'unanswered';\r\n  string public height = 'unanswered';\r\n  string public weight = 'unanswered';\r\n  string public blood = 'unanswered';\r\n  string public vacc = 'unanswered';\r\n  string public all = 'unanswered';\r\n  string public pres = 'unanswered';\r\n  string public sym = 'unanswered';\r\n  string public trav = 'unanswered';\r\n  string public his = 'unanswered';\r\n  string public ename = 'unanswered';\r\n  string public eno = 'unanswered';\r\n  string public ex = 'unanswered';\r\n\r\n//   struct MedicalForm {\r\n// \tstring fullname;\r\n// \tstring mail;\r\n// \tstring phno;\r\n// \tstring gender;\r\n// \tstring date;\r\n// \tstring height;\r\n// \tstring weight;\r\n// \tstring blood;\r\n// \tstring vacc;\r\n// \tstring all;\r\n// \tstring pres;\r\n// \tstring sym;\r\n// \tstring trav;\r\n// \tstring his;\r\n// \tstring ename;\r\n// \tstring eno;\r\n// \tstring ex;\r\n// \taddress payable author;\r\n//   }\r\n  \r\n//   MedicalForm public form;\r\n  \r\n  Form public mform;\r\n\r\n  \r\n\r\n  struct Image {\r\n    uint id;\r\n    string hash;\r\n    string description;\r\n    uint tipAmount;\r\n    address payable author;\r\n  }\r\n\r\n  struct Form {\r\n    string formname;\r\n  }\r\n\r\n  struct Doc {\r\n    uint id;\r\n    string hash;\r\n    string description;\r\n    uint tipAmount;\r\n    address payable author;\r\n  }\r\n\r\n  event ImageCreated(\r\n    uint id,\r\n    string hash,\r\n    string description,\r\n    uint tipAmount,\r\n    address payable author\r\n  );\r\n\r\n  event DocCreated(\r\n    uint id,\r\n    string hash,\r\n    string description,\r\n    uint tipAmount,\r\n    address payable author\r\n  );\r\n\r\n  event ImageTipped(\r\n    uint id,\r\n    string hash,\r\n    string description,\r\n    uint tipAmount,\r\n    address payable author\r\n  );\r\n\r\n  event NameCreated(\r\n    string name,\r\n    address payable author\r\n  );\r\n\r\n  event FormCreated(\r\n\tstring fullname,\r\n\tstring mail,\r\n\tstring phno,\r\n\tstring gender,\r\n\tstring date,\r\n\tstring height,\r\n\tstring weight,\r\n\tstring blood,\r\n\tstring vacc,\r\n\tstring all,\r\n\tstring pres,\r\n\tstring sym,\r\n\tstring trav,\r\n\tstring his,\r\n\tstring ename,\r\n\tstring eno,\r\n\tstring ex,\r\n\taddress payable author\r\n  );\r\n\r\n  constructor() public {\r\n    name = \"UBPP\";\r\n\t//name = \"UBPP\";\r\n  }\r\n\r\n  function testfunc() public returns (string memory) {\r\n    return fullname;\r\n  }\r\n\r\n  function uploadImage(string memory _imgHash, string memory _description) public {\r\n    // Make sure the image hash exists\r\n    require(bytes(_imgHash).length > 0);\r\n    // Make sure image description exists\r\n    require(bytes(_description).length > 0);\r\n    // Make sure uploader address exists\r\n    require(msg.sender!=address(0));\r\n\r\n    // Increment image id\r\n    imageCount ++;\r\n\r\n    // Add Image to the contract\r\n    images[imageCount] = Image(imageCount, _imgHash, _description, 0, msg.sender);\r\n    // Trigger an event\r\n    emit ImageCreated(imageCount, _imgHash, _description, 0, msg.sender);\r\n  }\r\n\r\n  function uploadName(string memory _name) public returns (string memory){\r\n    require(bytes(_name).length > 0);\r\n    mformCount++;\r\n    require(msg.sender!=address(0));\r\n    mforms[mformCount] = Form(_name);\r\n    fullname = _name;\r\n    //emit NameCreated(_name, msg.sender);\r\n\r\n    return fullname;\r\n  }\r\n\r\n  /*function uploadMail(string memory _name) public returns (string memory){\r\n    require(bytes(_name).length > 0);\r\n\r\n    require(msg.sender!=address(0));\r\n    mforms[mformCount] = Form(_name);\r\n    mail = _name;\r\n    //emit NameCreated(_name, msg.sender);\r\n\r\n    return mail;\r\n  }*/\r\n  \r\n  function uploadPhno(string memory _name) public returns (string memory){\r\n    require(bytes(_name).length > 0);\r\n    mformCount++;\r\n    require(msg.sender!=address(0));\r\n    mforms[mformCount] = Form(_name);\r\n    phno = _name;\r\n    //emit NameCreated(_name, msg.sender);\r\n\r\n    return phno;\r\n  }\r\n  \r\n  function uploadGender(string memory _name) public returns (string memory){\r\n    require(bytes(_name).length > 0);\r\n    mformCount++;\r\n    require(msg.sender!=address(0));\r\n    mforms[mformCount] = Form(_name);\r\n    gender = _name;\r\n    //emit NameCreated(_name, msg.sender);\r\n\r\n    return gender;\r\n  }\r\n  \r\n  /*function uploadDob(string memory _name) public returns (string memory){\r\n    require(bytes(_name).length > 0);\r\n    mformCount++;\r\n    require(msg.sender!=address(0));\r\n    mforms[mformCount] = Form(_name);\r\n    date = _name;\r\n    //emit NameCreated(_name, msg.sender);\r\n\r\n    return date;\r\n  }*/\r\n  \r\n  /*function uploadHeight(string memory _name) public returns (string memory){\r\n    require(bytes(_name).length > 0);\r\n    mformCount++;\r\n    require(msg.sender!=address(0));\r\n    mforms[mformCount] = Form(_name);\r\n    height = _name;\r\n    //emit NameCreated(_name, msg.sender);\r\n\r\n    return height;\r\n  }*/\r\n  \r\n  /*function uploadWeight(string memory _name) public returns (string memory){\r\n    require(bytes(_name).length > 0);\r\n    mformCount++;\r\n    require(msg.sender!=address(0));\r\n    mforms[mformCount] = Form(_name);\r\n    weight = _name;\r\n    //emit NameCreated(_name, msg.sender);\r\n\r\n    return weight;\r\n  }*/\r\n  \r\n  /*function uploadBg(string memory _name) public returns (string memory){\r\n    require(bytes(_name).length > 0);\r\n    mformCount++;\r\n    require(msg.sender!=address(0));\r\n    mforms[mformCount] = Form(_name);\r\n    blood = _name;\r\n    //emit NameCreated(_name, msg.sender);\r\n\r\n    return blood;\r\n  }*/\r\n  \r\n  /*function uploadVacc(string memory _name) public returns (string memory){\r\n    require(bytes(_name).length > 0);\r\n    mformCount++;\r\n    require(msg.sender!=address(0));\r\n    mforms[mformCount] = Form(_name);\r\n    vacc = _name;\r\n    //emit NameCreated(_name, msg.sender);\r\n\r\n    return vacc;\r\n  }*/\r\n  \r\n  /*function uploadAller(string memory _name) public returns (string memory){\r\n    require(bytes(_name).length > 0);\r\n    mformCount++;\r\n    require(msg.sender!=address(0));\r\n    mforms[mformCount] = Form(_name);\r\n    all = _name;\r\n    //emit NameCreated(_name, msg.sender);\r\n\r\n    return all;\r\n  }*/\r\n  \r\n  /*function uploadPres(string memory _name) public returns (string memory){\r\n    require(bytes(_name).length > 0);\r\n    mformCount++;\r\n    require(msg.sender!=address(0));\r\n    mforms[mformCount] = Form(_name);\r\n    pres = _name;\r\n    //emit NameCreated(_name, msg.sender);\r\n\r\n    return pres;\r\n  }*/\r\n  \r\n  /*function uploadSym(string memory _name) public returns (string memory){\r\n    require(bytes(_name).length > 0);\r\n    mformCount++;\r\n    require(msg.sender!=address(0));\r\n    mforms[mformCount] = Form(_name);\r\n    sym = _name;\r\n    //emit NameCreated(_name, msg.sender);\r\n\r\n    return sym;\r\n  }*/\r\n  \r\n  /*function uploadTrav(string memory _name) public returns (string memory){\r\n    require(bytes(_name).length > 0);\r\n    mformCount++;\r\n    require(msg.sender!=address(0));\r\n    mforms[mformCount] = Form(_name);\r\n    trav = _name;\r\n    //emit NameCreated(_name, msg.sender);\r\n\r\n    return trav;\r\n  }*/\r\n  \r\n  /*function uploadHist(string memory _name) public returns (string memory){\r\n    require(bytes(_name).length > 0);\r\n    mformCount++;\r\n    require(msg.sender!=address(0));\r\n    mforms[mformCount] = Form(_name);\r\n    his = _name;\r\n    //emit NameCreated(_name, msg.sender);\r\n\r\n    return his;\r\n  }*/\r\n  \r\n  /*function uploadEmNam(string memory _name) public returns (string memory){\r\n    require(bytes(_name).length > 0);\r\n    mformCount++;\r\n    require(msg.sender!=address(0));\r\n    mforms[mformCount] = Form(_name);\r\n    ename = _name;\r\n    //emit NameCreated(_name, msg.sender);\r\n\r\n    return ename;\r\n  }*/\r\n  \r\n  /*function uploadEmNo(string memory _name) public returns (string memory){\r\n    require(bytes(_name).length > 0);\r\n    mformCount++;\r\n    require(msg.sender!=address(0));\r\n    mforms[mformCount] = Form(_name);\r\n    eno = _name;\r\n    //emit NameCreated(_name, msg.sender);\r\n\r\n    return eno;\r\n  }*/\r\n  \r\n  /*function uploadExt(string memory _name) public returns (string memory){\r\n    require(bytes(_name).length > 0);\r\n    mformCount++;\r\n    require(msg.sender!=address(0));\r\n    mforms[mformCount] = Form(_name);\r\n    ex = _name;\r\n    //emit NameCreated(_name, msg.sender);\r\n\r\n    return ex;\r\n  }*/\r\n\r\n// function uploadForm(string memory _fullname, string memory _mail, string memory _phno, string memory _gender,\r\n// string memory _date, string memory _height, string memory _weight, string memory _blood, string memory _vacc, \r\n// string memory _all, string memory _pres, string memory _sym, string memory _trav, string memory _his, string memory _ename,\r\n// string memory _eno, string memory _ex) public {\r\n// // @notice Explain to an end user what this does\r\n// // @dev Explain to a developer any extra details\r\n// // @param Documents a parameter just like in doxygen (must be followed by parameter name)) \t\r\n//  \t// require(bytes(_fullname).length > 0);\r\n//  \t// require(bytes(_phno).length > 0);\r\n//  \t// require(bytes(_gender).length > 0);\r\n//  \trequire(msg.sender!=address(0));\r\n//  \tform = MedicalForm(_fullname, _mail, _phno, _gender, _date, _height, _weight, _blood, _vacc, _all, _pres, _sym, \r\n// \t _trav, _his, _ename, _eno, _ex, msg.sender);\r\n//  \t//emit FormCreated(_fullname, _phno, _gender, msg.sender);\r\n// }\r\n\r\nfunction uploadMedicalForm(string[] memory user_input) public {\r\n\trequire(msg.sender!=address(0));\r\n\tfullname = user_input[0];  \r\n\tmail = user_input[1];\r\n\tphno = user_input[2];\r\n\tgender = user_input[3];\r\n\tdate = user_input[4];\r\n\theight = user_input[5];\r\n\tweight = user_input[6];\r\n\tblood = user_input[7];\r\n\tvacc = user_input[8];\r\n\tall = user_input[9];\r\n\tpres = user_input[10];\r\n\tsym = user_input[11];\r\n\ttrav = user_input[12];\r\n\this = user_input[13];\r\n\tename = user_input[14];\r\n\teno = user_input[15];\r\n\tex = user_input[16];\r\n}\r\n\r\nfunction uploadDoc(string memory _docHash, string memory _description) public {\r\n  // Make sure the image hash exists\r\n    require(bytes(_docHash).length > 0);\r\n    // Make sure image description exists\r\n    require(bytes(_description).length > 0);\r\n    // Make sure uploader address exists\r\n    require(msg.sender!=address(0));\r\n\r\n    // Increment image id\r\n    docCount ++;\r\n\r\n    // Add Image to the contract\r\n    docs[docCount] = Doc(docCount, _docHash, _description, 0, msg.sender);\r\n    // Trigger an event\r\n    //emit DocCreated(docCount, _docHash, _description, 0, msg.sender);\r\n  }\r\n\r\n  function tipImageOwner(uint _id) public payable {\r\n    // Make sure the id is valid\r\n    require(_id > 0 && _id <= imageCount);\r\n    // Fetch the image\r\n    Image memory _image = images[_id];\r\n    // Fetch the author\r\n    address payable _author = _image.author;\r\n    // Pay the author by sending them Ether\r\n    address(_author).transfer(msg.value);\r\n    // Increment the tip amount\r\n    _image.tipAmount = _image.tipAmount + msg.value;\r\n    // Update the image\r\n    images[_id] = _image;\r\n    // Trigger an event\r\n    //emit ImageTipped(_id, _image.hash, _image.description, _image.tipAmount, _author);\r\n  }\r\n}\r\n",
  "sourcePath": "D:/VSCode/UBPP_final/ETHernals/Trial1/src/contracts/UBPP.sol",
  "compiler": {
    "name": "solc",
    "version": "0.5.0+commit.1d4f565a.Emscripten.clang"
  },
  "schemaVersion": "3.0.1",
  "updatedAt": "2022-03-24T17:34:56.809Z",
  "devdoc": {
    "methods": {}
  },
  "userdoc": {
    "methods": {}
  }
}