{
  "contractName": "UBPP",
  "abi": [
    {
      "inputs": [],
      "payable": false,
      "stateMutability": "nonpayable",
      "type": "constructor"
    },
    {
      "anonymous": false,
      "inputs": [
        {
          "indexed": false,
          "internalType": "uint256",
          "name": "id",
          "type": "uint256"
        },
        {
          "indexed": false,
          "internalType": "string",
          "name": "hash",
          "type": "string"
        },
        {
          "indexed": false,
          "internalType": "string",
          "name": "description",
          "type": "string"
        },
        {
          "indexed": false,
          "internalType": "uint256",
          "name": "tipAmount",
          "type": "uint256"
        },
        {
          "indexed": false,
          "internalType": "address payable",
          "name": "author",
          "type": "address"
        }
      ],
      "name": "DocCreated",
      "type": "event"
    },
    {
      "anonymous": false,
      "inputs": [
        {
          "indexed": false,
          "internalType": "string",
          "name": "fullname",
          "type": "string"
        },
        {
          "indexed": false,
          "internalType": "string",
          "name": "mail",
          "type": "string"
        },
        {
          "indexed": false,
          "internalType": "string",
          "name": "phno",
          "type": "string"
        },
        {
          "indexed": false,
          "internalType": "string",
          "name": "gender",
          "type": "string"
        },
        {
          "indexed": false,
          "internalType": "string",
          "name": "date",
          "type": "string"
        },
        {
          "indexed": false,
          "internalType": "string",
          "name": "height",
          "type": "string"
        },
        {
          "indexed": false,
          "internalType": "string",
          "name": "weight",
          "type": "string"
        },
        {
          "indexed": false,
          "internalType": "string",
          "name": "blood",
          "type": "string"
        },
        {
          "indexed": false,
          "internalType": "string",
          "name": "vacc",
          "type": "string"
        },
        {
          "indexed": false,
          "internalType": "string",
          "name": "all",
          "type": "string"
        },
        {
          "indexed": false,
          "internalType": "string",
          "name": "pres",
          "type": "string"
        },
        {
          "indexed": false,
          "internalType": "string",
          "name": "sym",
          "type": "string"
        },
        {
          "indexed": false,
          "internalType": "string",
          "name": "trav",
          "type": "string"
        },
        {
          "indexed": false,
          "internalType": "string",
          "name": "his",
          "type": "string"
        },
        {
          "indexed": false,
          "internalType": "string",
          "name": "ename",
          "type": "string"
        },
        {
          "indexed": false,
          "internalType": "string",
          "name": "eno",
          "type": "string"
        },
        {
          "indexed": false,
          "internalType": "string",
          "name": "ex",
          "type": "string"
        },
        {
          "indexed": false,
          "internalType": "address payable",
          "name": "author",
          "type": "address"
        }
      ],
      "name": "FormCreated",
      "type": "event"
    },
    {
      "anonymous": false,
      "inputs": [
        {
          "indexed": false,
          "internalType": "uint256",
          "name": "id",
          "type": "uint256"
        },
        {
          "indexed": false,
          "internalType": "string",
          "name": "hash",
          "type": "string"
        },
        {
          "indexed": false,
          "internalType": "string",
          "name": "description",
          "type": "string"
        },
        {
          "indexed": false,
          "internalType": "uint256",
          "name": "tipAmount",
          "type": "uint256"
        },
        {
          "indexed": false,
          "internalType": "address payable",
          "name": "author",
          "type": "address"
        }
      ],
      "name": "ImageCreated",
      "type": "event"
    },
    {
      "anonymous": false,
      "inputs": [
        {
          "indexed": false,
          "internalType": "uint256",
          "name": "id",
          "type": "uint256"
        },
        {
          "indexed": false,
          "internalType": "string",
          "name": "hash",
          "type": "string"
        },
        {
          "indexed": false,
          "internalType": "string",
          "name": "description",
          "type": "string"
        },
        {
          "indexed": false,
          "internalType": "uint256",
          "name": "tipAmount",
          "type": "uint256"
        },
        {
          "indexed": false,
          "internalType": "address payable",
          "name": "author",
          "type": "address"
        }
      ],
      "name": "ImageTipped",
      "type": "event"
    },
    {
      "anonymous": false,
      "inputs": [
        {
          "indexed": false,
          "internalType": "string",
          "name": "name",
          "type": "string"
        },
        {
          "indexed": false,
          "internalType": "address payable",
          "name": "author",
          "type": "address"
        }
      ],
      "name": "NameCreated",
      "type": "event"
    },
    {
      "constant": true,
      "inputs": [],
      "name": "all",
      "outputs": [
        {
          "internalType": "string",
          "name": "",
          "type": "string"
        }
      ],
      "payable": false,
      "stateMutability": "view",
      "type": "function"
    },
    {
      "constant": true,
      "inputs": [],
      "name": "blood",
      "outputs": [
        {
          "internalType": "string",
          "name": "",
          "type": "string"
        }
      ],
      "payable": false,
      "stateMutability": "view",
      "type": "function"
    },
    {
      "constant": true,
      "inputs": [],
      "name": "date",
      "outputs": [
        {
          "internalType": "string",
          "name": "",
          "type": "string"
        }
      ],
      "payable": false,
      "stateMutability": "view",
      "type": "function"
    },
    {
      "constant": true,
      "inputs": [],
      "name": "docCount",
      "outputs": [
        {
          "internalType": "uint256",
          "name": "",
          "type": "uint256"
        }
      ],
      "payable": false,
      "stateMutability": "view",
      "type": "function"
    },
    {
      "constant": true,
      "inputs": [
        {
          "internalType": "uint256",
          "name": "",
          "type": "uint256"
        }
      ],
      "name": "docs",
      "outputs": [
        {
          "internalType": "uint256",
          "name": "id",
          "type": "uint256"
        },
        {
          "internalType": "string",
          "name": "hash",
          "type": "string"
        },
        {
          "internalType": "string",
          "name": "description",
          "type": "string"
        },
        {
          "internalType": "uint256",
          "name": "tipAmount",
          "type": "uint256"
        },
        {
          "internalType": "address payable",
          "name": "author",
          "type": "address"
        }
      ],
      "payable": false,
      "stateMutability": "view",
      "type": "function"
    },
    {
      "constant": true,
      "inputs": [],
      "name": "ename",
      "outputs": [
        {
          "internalType": "string",
          "name": "",
          "type": "string"
        }
      ],
      "payable": false,
      "stateMutability": "view",
      "type": "function"
    },
    {
      "constant": true,
      "inputs": [],
      "name": "eno",
      "outputs": [
        {
          "internalType": "string",
          "name": "",
          "type": "string"
        }
      ],
      "payable": false,
      "stateMutability": "view",
      "type": "function"
    },
    {
      "constant": true,
      "inputs": [],
      "name": "ex",
      "outputs": [
        {
          "internalType": "string",
          "name": "",
          "type": "string"
        }
      ],
      "payable": false,
      "stateMutability": "view",
      "type": "function"
    },
    {
      "constant": true,
      "inputs": [],
      "name": "fullname",
      "outputs": [
        {
          "internalType": "string",
          "name": "",
          "type": "string"
        }
      ],
      "payable": false,
      "stateMutability": "view",
      "type": "function"
    },
    {
      "constant": true,
      "inputs": [],
      "name": "gender",
      "outputs": [
        {
          "internalType": "string",
          "name": "",
          "type": "string"
        }
      ],
      "payable": false,
      "stateMutability": "view",
      "type": "function"
    },
    {
      "constant": true,
      "inputs": [],
      "name": "height",
      "outputs": [
        {
          "internalType": "string",
          "name": "",
          "type": "string"
        }
      ],
      "payable": false,
      "stateMutability": "view",
      "type": "function"
    },
    {
      "constant": true,
      "inputs": [],
      "name": "his",
      "outputs": [
        {
          "internalType": "string",
          "name": "",
          "type": "string"
        }
      ],
      "payable": false,
      "stateMutability": "view",
      "type": "function"
    },
    {
      "constant": true,
      "inputs": [],
      "name": "imageCount",
      "outputs": [
        {
          "internalType": "uint256",
          "name": "",
          "type": "uint256"
        }
      ],
      "payable": false,
      "stateMutability": "view",
      "type": "function"
    },
    {
      "constant": true,
      "inputs": [
        {
          "internalType": "uint256",
          "name": "",
          "type": "uint256"
        }
      ],
      "name": "images",
      "outputs": [
        {
          "internalType": "uint256",
          "name": "id",
          "type": "uint256"
        },
        {
          "internalType": "string",
          "name": "hash",
          "type": "string"
        },
        {
          "internalType": "string",
          "name": "description",
          "type": "string"
        },
        {
          "internalType": "uint256",
          "name": "tipAmount",
          "type": "uint256"
        },
        {
          "internalType": "address payable",
          "name": "author",
          "type": "address"
        }
      ],
      "payable": false,
      "stateMutability": "view",
      "type": "function"
    },
    {
      "constant": true,
      "inputs": [],
      "name": "mail",
      "outputs": [
        {
          "internalType": "string",
          "name": "",
          "type": "string"
        }
      ],
      "payable": false,
      "stateMutability": "view",
      "type": "function"
    },
    {
      "constant": true,
      "inputs": [],
      "name": "mform",
      "outputs": [
        {
          "internalType": "string",
          "name": "formname",
          "type": "string"
        }
      ],
      "payable": false,
      "stateMutability": "view",
      "type": "function"
    },
    {
      "constant": true,
      "inputs": [],
      "name": "mformCount",
      "outputs": [
        {
          "internalType": "uint256",
          "name": "",
          "type": "uint256"
        }
      ],
      "payable": false,
      "stateMutability": "view",
      "type": "function"
    },
    {
      "constant": true,
      "inputs": [
        {
          "internalType": "uint256",
          "name": "",
          "type": "uint256"
        }
      ],
      "name": "mforms",
      "outputs": [
        {
          "internalType": "string",
          "name": "formname",
          "type": "string"
        }
      ],
      "payable": false,
      "stateMutability": "view",
      "type": "function"
    },
    {
      "constant": true,
      "inputs": [],
      "name": "name",
      "outputs": [
        {
          "internalType": "string",
          "name": "",
          "type": "string"
        }
      ],
      "payable": false,
      "stateMutability": "view",
      "type": "function"
    },
    {
      "constant": true,
      "inputs": [],
      "name": "phno",
      "outputs": [
        {
          "internalType": "string",
          "name": "",
          "type": "string"
        }
      ],
      "payable": false,
      "stateMutability": "view",
      "type": "function"
    },
    {
      "constant": true,
      "inputs": [],
      "name": "pres",
      "outputs": [
        {
          "internalType": "string",
          "name": "",
          "type": "string"
        }
      ],
      "payable": false,
      "stateMutability": "view",
      "type": "function"
    },
    {
      "constant": true,
      "inputs": [],
      "name": "sym",
      "outputs": [
        {
          "internalType": "string",
          "name": "",
          "type": "string"
        }
      ],
      "payable": false,
      "stateMutability": "view",
      "type": "function"
    },
    {
      "constant": true,
      "inputs": [],
      "name": "trav",
      "outputs": [
        {
          "internalType": "string",
          "name": "",
          "type": "string"
        }
      ],
      "payable": false,
      "stateMutability": "view",
      "type": "function"
    },
    {
      "constant": true,
      "inputs": [],
      "name": "vacc",
      "outputs": [
        {
          "internalType": "string",
          "name": "",
          "type": "string"
        }
      ],
      "payable": false,
      "stateMutability": "view",
      "type": "function"
    },
    {
      "constant": true,
      "inputs": [],
      "name": "weight",
      "outputs": [
        {
          "internalType": "string",
          "name": "",
          "type": "string"
        }
      ],
      "payable": false,
      "stateMutability": "view",
      "type": "function"
    },
    {
      "constant": false,
      "inputs": [],
      "name": "testfunc",
      "outputs": [
        {
          "internalType": "string",
          "name": "",
          "type": "string"
        }
      ],
      "payable": false,
      "stateMutability": "nonpayable",
      "type": "function"
    },
    {
      "constant": false,
      "inputs": [
        {
          "internalType": "string",
          "name": "_imgHash",
          "type": "string"
        },
        {
          "internalType": "string",
          "name": "_description",
          "type": "string"
        }
      ],
      "name": "uploadImage",
      "outputs": [],
      "payable": false,
      "stateMutability": "nonpayable",
      "type": "function"
    },
    {
      "constant": false,
      "inputs": [
        {
          "internalType": "string",
          "name": "_name",
          "type": "string"
        }
      ],
      "name": "uploadName",
      "outputs": [
        {
          "internalType": "string",
          "name": "",
          "type": "string"
        }
      ],
      "payable": false,
      "stateMutability": "nonpayable",
      "type": "function"
    },
    {
      "constant": false,
      "inputs": [
        {
          "internalType": "string",
          "name": "_name",
          "type": "string"
        }
      ],
      "name": "uploadPhno",
      "outputs": [
        {
          "internalType": "string",
          "name": "",
          "type": "string"
        }
      ],
      "payable": false,
      "stateMutability": "nonpayable",
      "type": "function"
    },
    {
      "constant": false,
      "inputs": [
        {
          "internalType": "string",
          "name": "_name",
          "type": "string"
        }
      ],
      "name": "uploadGender",
      "outputs": [
        {
          "internalType": "string",
          "name": "",
          "type": "string"
        }
      ],
      "payable": false,
      "stateMutability": "nonpayable",
      "type": "function"
    },
    {
      "constant": false,
      "inputs": [
        {
          "internalType": "string[]",
          "name": "user_input",
          "type": "string[]"
        }
      ],
      "name": "uploadMedicalForm",
      "outputs": [],
      "payable": false,
      "stateMutability": "nonpayable",
      "type": "function"
    },
    {
      "constant": false,
      "inputs": [
        {
          "internalType": "string",
          "name": "_docHash",
          "type": "string"
        },
        {
          "internalType": "string",
          "name": "_description",
          "type": "string"
        }
      ],
      "name": "uploadDoc",
      "outputs": [],
      "payable": false,
      "stateMutability": "nonpayable",
      "type": "function"
    },
    {
      "constant": false,
      "inputs": [
        {
          "internalType": "uint256",
          "name": "_id",
          "type": "uint256"
        }
      ],
      "name": "tipImageOwner",
      "outputs": [],
      "payable": true,
      "stateMutability": "payable",
      "type": "function"
    }
  ],
  "bytecode": "0x60806040526000600155600060025560006003556040518060400160405280600a81526020017f756e616e737765726564000000000000000000000000000000000000000000008152506007908051906020019062000060929190620005a3565b506040518060400160405280600a81526020017f756e616e7377657265640000000000000000000000000000000000000000000081525060089080519060200190620000ae929190620005a3565b506040518060400160405280600a81526020017f756e616e7377657265640000000000000000000000000000000000000000000081525060099080519060200190620000fc929190620005a3565b506040518060400160405280600a81526020017f756e616e73776572656400000000000000000000000000000000000000000000815250600a90805190602001906200014a929190620005a3565b506040518060400160405280600a81526020017f756e616e73776572656400000000000000000000000000000000000000000000815250600b908051906020019062000198929190620005a3565b506040518060400160405280600a81526020017f756e616e73776572656400000000000000000000000000000000000000000000815250600c9080519060200190620001e6929190620005a3565b506040518060400160405280600a81526020017f756e616e73776572656400000000000000000000000000000000000000000000815250600d908051906020019062000234929190620005a3565b506040518060400160405280600a81526020017f756e616e73776572656400000000000000000000000000000000000000000000815250600e908051906020019062000282929190620005a3565b506040518060400160405280600a81526020017f756e616e73776572656400000000000000000000000000000000000000000000815250600f9080519060200190620002d0929190620005a3565b506040518060400160405280600a81526020017f756e616e73776572656400000000000000000000000000000000000000000000815250601090805190602001906200031e929190620005a3565b506040518060400160405280600a81526020017f756e616e73776572656400000000000000000000000000000000000000000000815250601190805190602001906200036c929190620005a3565b506040518060400160405280600a81526020017f756e616e7377657265640000000000000000000000000000000000000000000081525060129080519060200190620003ba929190620005a3565b506040518060400160405280600a81526020017f756e616e737765726564000000000000000000000000000000000000000000008152506013908051906020019062000408929190620005a3565b506040518060400160405280600a81526020017f756e616e737765726564000000000000000000000000000000000000000000008152506014908051906020019062000456929190620005a3565b506040518060400160405280600a81526020017f756e616e7377657265640000000000000000000000000000000000000000000081525060159080519060200190620004a4929190620005a3565b506040518060400160405280600a81526020017f756e616e7377657265640000000000000000000000000000000000000000000081525060169080519060200190620004f2929190620005a3565b506040518060400160405280600a81526020017f756e616e737765726564000000000000000000000000000000000000000000008152506017908051906020019062000540929190620005a3565b503480156200054e57600080fd5b506040518060400160405280600481526020017f5542505000000000000000000000000000000000000000000000000000000000815250600090805190602001906200059c929190620005a3565b5062000652565b828054600181600116156101000203166002900490600052602060002090601f016020900481019282601f10620005e657805160ff191683800117855562000617565b8280016001018555821562000617579182015b8281111562000616578251825591602001919060010190620005f9565b5b5090506200062691906200062a565b5090565b6200064f91905b808211156200064b57600081600090555060010162000631565b5090565b90565b612c6d80620006626000396000f3fe6080604052600436106101ee5760003560e01c806379caad861161010d57806398c1eaf3116100a0578063a1aab33f1161006f578063a1aab33f146106f6578063a91b831414610721578063cee481cf1461074a578063e1c3454914610787578063ff4cb445146107b2576101ee565b806398c1eaf3146106385780639a68308f146106635780639e96883d1461068e578063a1787db5146106b9576101ee565b80638ef490ea116100dc5780638ef490ea1461058c57806392053b63146105b75780639449834f146105e257806397f8f0ec1461060d576101ee565b806379caad86146104d957806383813a2814610504578063848564821461052f5780638567ade814610570576101ee565b80632e029c0f116101855780633ae91160116101545780633ae911601461041b5780634c4dc6e0146104585780635586fab214610483578063690fa5f2146104ae576101ee565b80632e029c0f1461035d57806330019dca14610388578063323046b1146103c55780633655aa00146103f0576101ee565b806310c4e8b0116101c157806310c4e8b01461029f5780631ca73b8a146102ca57806323389c5a146102f35780632887425c14610334576101ee565b806306fdde03146101f3578063077a5c7d1461021e5780630b39dbc6146102495780630ef2674314610274575b600080fd5b3480156101ff57600080fd5b506102086107dd565b604051610215919061297d565b60405180910390f35b34801561022a57600080fd5b5061023361087b565b604051610240919061297d565b60405180910390f35b34801561025557600080fd5b5061025e610919565b60405161026b919061299f565b60405180910390f35b34801561028057600080fd5b506102896109bb565b604051610296919061297d565b60405180910390f35b3480156102ab57600080fd5b506102b4610a59565b6040516102c1919061297d565b60405180910390f35b3480156102d657600080fd5b506102f160048036036102ec91908101906127c7565b610af7565b005b3480156102ff57600080fd5b5061031a600480360361031591908101906128b5565b610e0f565b60405161032b959493929190612a3d565b60405180910390f35b34801561034057600080fd5b5061035b60048036036103569190810190612849565b610f95565b005b34801561036957600080fd5b506103726110ee565b60405161037f919061297d565b60405180910390f35b34801561039457600080fd5b506103af60048036036103aa9190810190612808565b61118c565b6040516103bc919061299f565b60405180910390f35b3480156103d157600080fd5b506103da6112e5565b6040516103e7919061297d565b60405180910390f35b3480156103fc57600080fd5b50610405611383565b604051610412919061297d565b60405180910390f35b34801561042757600080fd5b50610442600480360361043d9190810190612808565b611421565b60405161044f919061299f565b60405180910390f35b34801561046457600080fd5b5061046d61157a565b60405161047a91906129c1565b60405180910390f35b34801561048f57600080fd5b50610498611580565b6040516104a5919061297d565b60405180910390f35b3480156104ba57600080fd5b506104c3611624565b6040516104d091906129c1565b60405180910390f35b3480156104e557600080fd5b506104ee61162a565b6040516104fb919061297d565b60405180910390f35b34801561051057600080fd5b506105196116c8565b604051610526919061297d565b60405180910390f35b34801561053b57600080fd5b50610556600480360361055191908101906128b5565b611766565b604051610567959493929190612a3d565b60405180910390f35b61058a600480360361058591908101906128b5565b6118ec565b005b34801561059857600080fd5b506105a1611bee565b6040516105ae919061297d565b60405180910390f35b3480156105c357600080fd5b506105cc611c8c565b6040516105d991906129c1565b60405180910390f35b3480156105ee57600080fd5b506105f7611c92565b604051610604919061297d565b60405180910390f35b34801561061957600080fd5b50610622611d30565b60405161062f919061297d565b60405180910390f35b34801561064457600080fd5b5061064d611dce565b60405161065a919061297d565b60405180910390f35b34801561066f57600080fd5b50610678611e6c565b604051610685919061297d565b60405180910390f35b34801561069a57600080fd5b506106a3611f0a565b6040516106b0919061297d565b60405180910390f35b3480156106c557600080fd5b506106e060048036036106db91908101906128b5565b611fa8565b6040516106ed919061297d565b60405180910390f35b34801561070257600080fd5b5061070b61205e565b604051610718919061297d565b60405180910390f35b34801561072d57600080fd5b5061074860048036036107439190810190612849565b6120fc565b005b34801561075657600080fd5b50610771600480360361076c9190810190612808565b612297565b60405161077e919061299f565b60405180910390f35b34801561079357600080fd5b5061079c6123f0565b6040516107a9919061297d565b60405180910390f35b3480156107be57600080fd5b506107c761248e565b6040516107d4919061297d565b60405180910390f35b60008054600181600116156101000203166002900480601f0160208091040260200160405190810160405280929190818152602001828054600181600116156101000203166002900480156108735780601f1061084857610100808354040283529160200191610873565b820191906000526020600020905b81548152906001019060200180831161085657829003601f168201915b505050505081565b60168054600181600116156101000203166002900480601f0160208091040260200160405190810160405280929190818152602001828054600181600116156101000203166002900480156109115780601f106108e657610100808354040283529160200191610911565b820191906000526020600020905b8154815290600101906020018083116108f457829003601f168201915b505050505081565b606060078054600181600116156101000203166002900480601f0160208091040260200160405190810160405280929190818152602001828054600181600116156101000203166002900480156109b15780601f10610986576101008083540402835291602001916109b1565b820191906000526020600020905b81548152906001019060200180831161099457829003601f168201915b5050505050905090565b600c8054600181600116156101000203166002900480601f016020809104026020016040519081016040528092919081815260200182805460018160011615610100020316600290048015610a515780601f10610a2657610100808354040283529160200191610a51565b820191906000526020600020905b815481529060010190602001808311610a3457829003601f168201915b505050505081565b60108054600181600116156101000203166002900480601f016020809104026020016040519081016040528092919081815260200182805460018160011615610100020316600290048015610aef5780601f10610ac457610100808354040283529160200191610aef565b820191906000526020600020905b815481529060010190602001808311610ad257829003601f168201915b505050505081565b600073ffffffffffffffffffffffffffffffffffffffff163373ffffffffffffffffffffffffffffffffffffffff161415610b3157600080fd5b80600081518110610b3e57fe5b602002602001015160079080519060200190610b5b92919061252c565b5080600181518110610b6957fe5b602002602001015160089080519060200190610b8692919061252c565b5080600281518110610b9457fe5b602002602001015160099080519060200190610bb192919061252c565b5080600381518110610bbf57fe5b6020026020010151600a9080519060200190610bdc92919061252c565b5080600481518110610bea57fe5b6020026020010151600b9080519060200190610c0792919061252c565b5080600581518110610c1557fe5b6020026020010151600c9080519060200190610c3292919061252c565b5080600681518110610c4057fe5b6020026020010151600d9080519060200190610c5d92919061252c565b5080600781518110610c6b57fe5b6020026020010151600e9080519060200190610c8892919061252c565b5080600881518110610c9657fe5b6020026020010151600f9080519060200190610cb392919061252c565b5080600981518110610cc157fe5b602002602001015160109080519060200190610cde92919061252c565b5080600a81518110610cec57fe5b602002602001015160119080519060200190610d0992919061252c565b5080600b81518110610d1757fe5b602002602001015160129080519060200190610d3492919061252c565b5080600c81518110610d4257fe5b602002602001015160139080519060200190610d5f92919061252c565b5080600d81518110610d6d57fe5b602002602001015160149080519060200190610d8a92919061252c565b5080600e81518110610d9857fe5b602002602001015160159080519060200190610db592919061252c565b5080600f81518110610dc357fe5b602002602001015160169080519060200190610de092919061252c565b5080601081518110610dee57fe5b602002602001015160179080519060200190610e0b92919061252c565b5050565b6005602052806000526040600020600091509050806000015490806001018054600181600116156101000203166002900480601f016020809104026020016040519081016040528092919081815260200182805460018160011615610100020316600290048015610ec15780601f10610e9657610100808354040283529160200191610ec1565b820191906000526020600020905b815481529060010190602001808311610ea457829003601f168201915b505050505090806002018054600181600116156101000203166002900480601f016020809104026020016040519081016040528092919081815260200182805460018160011615610100020316600290048015610f5f5780601f10610f3457610100808354040283529160200191610f5f565b820191906000526020600020905b815481529060010190602001808311610f4257829003601f168201915b5050505050908060030154908060040160009054906101000a900473ffffffffffffffffffffffffffffffffffffffff16905085565b6000825111610fa357600080fd5b6000815111610fb157600080fd5b600073ffffffffffffffffffffffffffffffffffffffff163373ffffffffffffffffffffffffffffffffffffffff161415610feb57600080fd5b6002600081548092919060010191905055506040518060a001604052806002548152602001838152602001828152602001600081526020013373ffffffffffffffffffffffffffffffffffffffff168152506005600060025481526020019081526020016000206000820151816000015560208201518160010190805190602001906110789291906125ac565b5060408201518160020190805190602001906110959291906125ac565b506060820151816003015560808201518160040160006101000a81548173ffffffffffffffffffffffffffffffffffffffff021916908373ffffffffffffffffffffffffffffffffffffffff1602179055509050505050565b60118054600181600116156101000203166002900480601f0160208091040260200160405190810160405280929190818152602001828054600181600116156101000203166002900480156111845780601f1061115957610100808354040283529160200191611184565b820191906000526020600020905b81548152906001019060200180831161116757829003601f168201915b505050505081565b6060600082511161119c57600080fd5b600360008154809291906001019190505550600073ffffffffffffffffffffffffffffffffffffffff163373ffffffffffffffffffffffffffffffffffffffff1614156111e857600080fd5b60405180602001604052808381525060066000600354815260200190815260200160002060008201518160000190805190602001906112289291906125ac565b50905050816007908051906020019061124292919061252c565b5060078054600181600116156101000203166002900480601f0160208091040260200160405190810160405280929190818152602001828054600181600116156101000203166002900480156112d95780601f106112ae576101008083540402835291602001916112d9565b820191906000526020600020905b8154815290600101906020018083116112bc57829003601f168201915b50505050509050919050565b600b8054600181600116156101000203166002900480601f01602080910402602001604051908101604052809291908181526020018280546001816001161561010002031660029004801561137b5780601f106113505761010080835404028352916020019161137b565b820191906000526020600020905b81548152906001019060200180831161135e57829003601f168201915b505050505081565b60158054600181600116156101000203166002900480601f0160208091040260200160405190810160405280929190818152602001828054600181600116156101000203166002900480156114195780601f106113ee57610100808354040283529160200191611419565b820191906000526020600020905b8154815290600101906020018083116113fc57829003601f168201915b505050505081565b6060600082511161143157600080fd5b600360008154809291906001019190505550600073ffffffffffffffffffffffffffffffffffffffff163373ffffffffffffffffffffffffffffffffffffffff16141561147d57600080fd5b60405180602001604052808381525060066000600354815260200190815260200160002060008201518160000190805190602001906114bd9291906125ac565b5090505081600a90805190602001906114d792919061252c565b50600a8054600181600116156101000203166002900480601f01602080910402602001604051908101604052809291908181526020018280546001816001161561010002031660029004801561156e5780601f106115435761010080835404028352916020019161156e565b820191906000526020600020905b81548152906001019060200180831161155157829003601f168201915b50505050509050919050565b60025481565b6018806000018054600181600116156101000203166002900480601f01602080910402602001604051908101604052809291908181526020018280546001816001161561010002031660029004801561161a5780601f106115ef5761010080835404028352916020019161161a565b820191906000526020600020905b8154815290600101906020018083116115fd57829003601f168201915b5050505050905081565b60035481565b600a8054600181600116156101000203166002900480601f0160208091040260200160405190810160405280929190818152602001828054600181600116156101000203166002900480156116c05780601f10611695576101008083540402835291602001916116c0565b820191906000526020600020905b8154815290600101906020018083116116a357829003601f168201915b505050505081565b60128054600181600116156101000203166002900480601f01602080910402602001604051908101604052809291908181526020018280546001816001161561010002031660029004801561175e5780601f106117335761010080835404028352916020019161175e565b820191906000526020600020905b81548152906001019060200180831161174157829003601f168201915b505050505081565b6004602052806000526040600020600091509050806000015490806001018054600181600116156101000203166002900480601f0160208091040260200160405190810160405280929190818152602001828054600181600116156101000203166002900480156118185780601f106117ed57610100808354040283529160200191611818565b820191906000526020600020905b8154815290600101906020018083116117fb57829003601f168201915b505050505090806002018054600181600116156101000203166002900480601f0160208091040260200160405190810160405280929190818152602001828054600181600116156101000203166002900480156118b65780601f1061188b576101008083540402835291602001916118b6565b820191906000526020600020905b81548152906001019060200180831161189957829003601f168201915b5050505050908060030154908060040160009054906101000a900473ffffffffffffffffffffffffffffffffffffffff16905085565b6000811180156118fe57506001548111155b61190757600080fd5b61190f61262c565b600460008381526020019081526020016000206040518060a001604052908160008201548152602001600182018054600181600116156101000203166002900480601f0160208091040260200160405190810160405280929190818152602001828054600181600116156101000203166002900480156119d05780601f106119a5576101008083540402835291602001916119d0565b820191906000526020600020905b8154815290600101906020018083116119b357829003601f168201915b50505050508152602001600282018054600181600116156101000203166002900480601f016020809104026020016040519081016040528092919081815260200182805460018160011615610100020316600290048015611a725780601f10611a4757610100808354040283529160200191611a72565b820191906000526020600020905b815481529060010190602001808311611a5557829003601f168201915b50505050508152602001600382015481526020016004820160009054906101000a900473ffffffffffffffffffffffffffffffffffffffff1673ffffffffffffffffffffffffffffffffffffffff1673ffffffffffffffffffffffffffffffffffffffff168152505090506000816080015190508073ffffffffffffffffffffffffffffffffffffffff166108fc349081150290604051600060405180830381858888f19350505050158015611b2c573d6000803e3d6000fd5b50348260600151018260600181815250508160046000858152602001908152602001600020600082015181600001556020820151816001019080519060200190611b779291906125ac565b506040820151816002019080519060200190611b949291906125ac565b506060820151816003015560808201518160040160006101000a81548173ffffffffffffffffffffffffffffffffffffffff021916908373ffffffffffffffffffffffffffffffffffffffff160217905550905050505050565b60078054600181600116156101000203166002900480601f016020809104026020016040519081016040528092919081815260200182805460018160011615610100020316600290048015611c845780601f10611c5957610100808354040283529160200191611c84565b820191906000526020600020905b815481529060010190602001808311611c6757829003601f168201915b505050505081565b60015481565b60148054600181600116156101000203166002900480601f016020809104026020016040519081016040528092919081815260200182805460018160011615610100020316600290048015611d285780601f10611cfd57610100808354040283529160200191611d28565b820191906000526020600020905b815481529060010190602001808311611d0b57829003601f168201915b505050505081565b600e8054600181600116156101000203166002900480601f016020809104026020016040519081016040528092919081815260200182805460018160011615610100020316600290048015611dc65780601f10611d9b57610100808354040283529160200191611dc6565b820191906000526020600020905b815481529060010190602001808311611da957829003601f168201915b505050505081565b600f8054600181600116156101000203166002900480601f016020809104026020016040519081016040528092919081815260200182805460018160011615610100020316600290048015611e645780601f10611e3957610100808354040283529160200191611e64565b820191906000526020600020905b815481529060010190602001808311611e4757829003601f168201915b505050505081565b60088054600181600116156101000203166002900480601f016020809104026020016040519081016040528092919081815260200182805460018160011615610100020316600290048015611f025780601f10611ed757610100808354040283529160200191611f02565b820191906000526020600020905b815481529060010190602001808311611ee557829003601f168201915b505050505081565b60098054600181600116156101000203166002900480601f016020809104026020016040519081016040528092919081815260200182805460018160011615610100020316600290048015611fa05780601f10611f7557610100808354040283529160200191611fa0565b820191906000526020600020905b815481529060010190602001808311611f8357829003601f168201915b505050505081565b6006602052806000526040600020600091509050806000018054600181600116156101000203166002900480601f0160208091040260200160405190810160405280929190818152602001828054600181600116156101000203166002900480156120545780601f1061202957610100808354040283529160200191612054565b820191906000526020600020905b81548152906001019060200180831161203757829003601f168201915b5050505050905081565b600d8054600181600116156101000203166002900480601f0160208091040260200160405190810160405280929190818152602001828054600181600116156101000203166002900480156120f45780601f106120c9576101008083540402835291602001916120f4565b820191906000526020600020905b8154815290600101906020018083116120d757829003601f168201915b505050505081565b600082511161210a57600080fd5b600081511161211857600080fd5b600073ffffffffffffffffffffffffffffffffffffffff163373ffffffffffffffffffffffffffffffffffffffff16141561215257600080fd5b6001600081548092919060010191905055506040518060a001604052806001548152602001838152602001828152602001600081526020013373ffffffffffffffffffffffffffffffffffffffff168152506004600060015481526020019081526020016000206000820151816000015560208201518160010190805190602001906121df9291906125ac565b5060408201518160020190805190602001906121fc9291906125ac565b506060820151816003015560808201518160040160006101000a81548173ffffffffffffffffffffffffffffffffffffffff021916908373ffffffffffffffffffffffffffffffffffffffff1602179055509050507fc1d8dfa99b3f84f95d3f0bc4a768addeb97b83b20aef7f9cb6729e126bafd2f9600154838360003360405161228b9594939291906129dc565b60405180910390a15050565b606060008251116122a757600080fd5b600360008154809291906001019190505550600073ffffffffffffffffffffffffffffffffffffffff163373ffffffffffffffffffffffffffffffffffffffff1614156122f357600080fd5b60405180602001604052808381525060066000600354815260200190815260200160002060008201518160000190805190602001906123339291906125ac565b50905050816009908051906020019061234d92919061252c565b5060098054600181600116156101000203166002900480601f0160208091040260200160405190810160405280929190818152602001828054600181600116156101000203166002900480156123e45780601f106123b9576101008083540402835291602001916123e4565b820191906000526020600020905b8154815290600101906020018083116123c757829003601f168201915b50505050509050919050565b60178054600181600116156101000203166002900480601f0160208091040260200160405190810160405280929190818152602001828054600181600116156101000203166002900480156124865780601f1061245b57610100808354040283529160200191612486565b820191906000526020600020905b81548152906001019060200180831161246957829003601f168201915b505050505081565b60138054600181600116156101000203166002900480601f0160208091040260200160405190810160405280929190818152602001828054600181600116156101000203166002900480156125245780601f106124f957610100808354040283529160200191612524565b820191906000526020600020905b81548152906001019060200180831161250757829003601f168201915b505050505081565b828054600181600116156101000203166002900490600052602060002090601f016020900481019282601f1061256d57805160ff191683800117855561259b565b8280016001018555821561259b579182015b8281111561259a57825182559160200191906001019061257f565b5b5090506125a89190612671565b5090565b828054600181600116156101000203166002900490600052602060002090601f016020900481019282601f106125ed57805160ff191683800117855561261b565b8280016001018555821561261b579182015b8281111561261a5782518255916020019190600101906125ff565b5b5090506126289190612671565b5090565b6040518060a0016040528060008152602001606081526020016060815260200160008152602001600073ffffffffffffffffffffffffffffffffffffffff1681525090565b61269391905b8082111561268f576000816000905550600101612677565b5090565b90565b600082601f8301126126a757600080fd5b81356126ba6126b582612acb565b612a9e565b9150818183526020840193506020810190508360005b8381101561270057813586016126e6888261270a565b8452602084019350602083019250506001810190506126d0565b5050505092915050565b600082601f83011261271b57600080fd5b813561272e61272982612af3565b612a9e565b9150808252602083016020830185838301111561274a57600080fd5b612755838284612bc0565b50505092915050565b600082601f83011261276f57600080fd5b813561278261277d82612b1f565b612a9e565b9150808252602083016020830185838301111561279e57600080fd5b6127a9838284612bc0565b50505092915050565b6000813590506127c181612c13565b92915050565b6000602082840312156127d957600080fd5b600082013567ffffffffffffffff8111156127f357600080fd5b6127ff84828501612696565b91505092915050565b60006020828403121561281a57600080fd5b600082013567ffffffffffffffff81111561283457600080fd5b6128408482850161275e565b91505092915050565b6000806040838503121561285c57600080fd5b600083013567ffffffffffffffff81111561287657600080fd5b6128828582860161275e565b925050602083013567ffffffffffffffff81111561289f57600080fd5b6128ab8582860161275e565b9150509250929050565b6000602082840312156128c757600080fd5b60006128d5848285016127b2565b91505092915050565b6128e781612b72565b82525050565b6128f681612bae565b82525050565b600061290782612b56565b6129118185612b61565b9350612921818560208601612bcf565b61292a81612c02565b840191505092915050565b600061294082612b4b565b61294a8185612b61565b935061295a818560208601612bcf565b61296381612c02565b840191505092915050565b61297781612ba4565b82525050565b600060208201905081810360008301526129978184612935565b905092915050565b600060208201905081810360008301526129b981846128fc565b905092915050565b60006020820190506129d6600083018461296e565b92915050565b600060a0820190506129f1600083018861296e565b8181036020830152612a0381876128fc565b90508181036040830152612a1781866128fc565b9050612a2660608301856128ed565b612a3360808301846128de565b9695505050505050565b600060a082019050612a52600083018861296e565b8181036020830152612a648187612935565b90508181036040830152612a788186612935565b9050612a87606083018561296e565b612a9460808301846128de565b9695505050505050565b6000604051905081810181811067ffffffffffffffff82111715612ac157600080fd5b8060405250919050565b600067ffffffffffffffff821115612ae257600080fd5b602082029050602081019050919050565b600067ffffffffffffffff821115612b0a57600080fd5b601f19601f8301169050602081019050919050565b600067ffffffffffffffff821115612b3657600080fd5b601f19601f8301169050602081019050919050565b600081519050919050565b600081519050919050565b600082825260208201905092915050565b6000612b7d82612b84565b9050919050565b600073ffffffffffffffffffffffffffffffffffffffff82169050919050565b6000819050919050565b6000612bb982612ba4565b9050919050565b82818337600083830152505050565b60005b83811015612bed578082015181840152602081019050612bd2565b83811115612bfc576000848401525b50505050565b6000601f19601f8301169050919050565b612c1c81612ba4565b8114612c2757600080fd5b5056fea365627a7a723158204fef56bd28ca2e08359dfabdc1f06b2b71d7731b61e811aa5c01e6e03eb919e36c6578706572696d656e74616cf564736f6c63430005100040",
  "source": "pragma solidity ^0.5.0;\r\npragma experimental ABIEncoderV2;\r\n\r\ncontract UBPP {\r\n  string public name;\r\n  uint public imageCount = 0;\r\n  uint public docCount = 0;\r\n  uint public mformCount = 0;\r\n  mapping(uint => Image) public images;\r\n  mapping(uint => Doc) public docs;\r\n  mapping(uint => Form) public mforms;\r\n  string public fullname = 'unanswered';\r\n  string public mail = 'unanswered';\r\n  string public phno = 'unanswered';\r\n  string public gender = 'unanswered';\r\n  string public date = 'unanswered';\r\n  string public height = 'unanswered';\r\n  string public weight = 'unanswered';\r\n  string public blood = 'unanswered';\r\n  string public vacc = 'unanswered';\r\n  string public all = 'unanswered';\r\n  string public pres = 'unanswered';\r\n  string public sym = 'unanswered';\r\n  string public trav = 'unanswered';\r\n  string public his = 'unanswered';\r\n  string public ename = 'unanswered';\r\n  string public eno = 'unanswered';\r\n  string public ex = 'unanswered';\r\n\r\n//   struct MedicalForm {\r\n// \tstring fullname;\r\n// \tstring mail;\r\n// \tstring phno;\r\n// \tstring gender;\r\n// \tstring date;\r\n// \tstring height;\r\n// \tstring weight;\r\n// \tstring blood;\r\n// \tstring vacc;\r\n// \tstring all;\r\n// \tstring pres;\r\n// \tstring sym;\r\n// \tstring trav;\r\n// \tstring his;\r\n// \tstring ename;\r\n// \tstring eno;\r\n// \tstring ex;\r\n// \taddress payable author;\r\n//   }\r\n  \r\n//   MedicalForm public form;\r\n  \r\n  Form public mform;\r\n\r\n  \r\n\r\n  struct Image {\r\n    uint id;\r\n    string hash;\r\n    string description;\r\n    uint tipAmount;\r\n    address payable author;\r\n  }\r\n\r\n  struct Form {\r\n    string formname;\r\n  }\r\n\r\n  struct Doc {\r\n    uint id;\r\n    string hash;\r\n    string description;\r\n    uint tipAmount;\r\n    address payable author;\r\n  }\r\n\r\n  event ImageCreated(\r\n    uint id,\r\n    string hash,\r\n    string description,\r\n    uint tipAmount,\r\n    address payable author\r\n  );\r\n\r\n  event DocCreated(\r\n    uint id,\r\n    string hash,\r\n    string description,\r\n    uint tipAmount,\r\n    address payable author\r\n  );\r\n\r\n  event ImageTipped(\r\n    uint id,\r\n    string hash,\r\n    string description,\r\n    uint tipAmount,\r\n    address payable author\r\n  );\r\n\r\n  event NameCreated(\r\n    string name,\r\n    address payable author\r\n  );\r\n\r\n  event FormCreated(\r\n\tstring fullname,\r\n\tstring mail,\r\n\tstring phno,\r\n\tstring gender,\r\n\tstring date,\r\n\tstring height,\r\n\tstring weight,\r\n\tstring blood,\r\n\tstring vacc,\r\n\tstring all,\r\n\tstring pres,\r\n\tstring sym,\r\n\tstring trav,\r\n\tstring his,\r\n\tstring ename,\r\n\tstring eno,\r\n\tstring ex,\r\n\taddress payable author\r\n  );\r\n\r\n  constructor() public {\r\n    name = \"UBPP\";\r\n\t//name = \"UBPP\";\r\n  }\r\n\r\n  function testfunc() public returns (string memory) {\r\n    return fullname;\r\n  }\r\n\r\n  function uploadImage(string memory _imgHash, string memory _description) public {\r\n    // Make sure the image hash exists\r\n    require(bytes(_imgHash).length > 0);\r\n    // Make sure image description exists\r\n    require(bytes(_description).length > 0);\r\n    // Make sure uploader address exists\r\n    require(msg.sender!=address(0));\r\n\r\n    // Increment image id\r\n    imageCount ++;\r\n\r\n    // Add Image to the contract\r\n    images[imageCount] = Image(imageCount, _imgHash, _description, 0, msg.sender);\r\n    // Trigger an event\r\n    emit ImageCreated(imageCount, _imgHash, _description, 0, msg.sender);\r\n  }\r\n\r\n  function uploadName(string memory _name) public returns (string memory){\r\n    require(bytes(_name).length > 0);\r\n    mformCount++;\r\n    require(msg.sender!=address(0));\r\n    mforms[mformCount] = Form(_name);\r\n    fullname = _name;\r\n    //emit NameCreated(_name, msg.sender);\r\n\r\n    return fullname;\r\n  }\r\n\r\n  /*function uploadMail(string memory _name) public returns (string memory){\r\n    require(bytes(_name).length > 0);\r\n\r\n    require(msg.sender!=address(0));\r\n    mforms[mformCount] = Form(_name);\r\n    mail = _name;\r\n    //emit NameCreated(_name, msg.sender);\r\n\r\n    return mail;\r\n  }*/\r\n  \r\n  function uploadPhno(string memory _name) public returns (string memory){\r\n    require(bytes(_name).length > 0);\r\n    mformCount++;\r\n    require(msg.sender!=address(0));\r\n    mforms[mformCount] = Form(_name);\r\n    phno = _name;\r\n    //emit NameCreated(_name, msg.sender);\r\n\r\n    return phno;\r\n  }\r\n  \r\n  function uploadGender(string memory _name) public returns (string memory){\r\n    require(bytes(_name).length > 0);\r\n    mformCount++;\r\n    require(msg.sender!=address(0));\r\n    mforms[mformCount] = Form(_name);\r\n    gender = _name;\r\n    //emit NameCreated(_name, msg.sender);\r\n\r\n    return gender;\r\n  }\r\n  \r\n  /*function uploadDob(string memory _name) public returns (string memory){\r\n    require(bytes(_name).length > 0);\r\n    mformCount++;\r\n    require(msg.sender!=address(0));\r\n    mforms[mformCount] = Form(_name);\r\n    date = _name;\r\n    //emit NameCreated(_name, msg.sender);\r\n\r\n    return date;\r\n  }*/\r\n  \r\n  /*function uploadHeight(string memory _name) public returns (string memory){\r\n    require(bytes(_name).length > 0);\r\n    mformCount++;\r\n    require(msg.sender!=address(0));\r\n    mforms[mformCount] = Form(_name);\r\n    height = _name;\r\n    //emit NameCreated(_name, msg.sender);\r\n\r\n    return height;\r\n  }*/\r\n  \r\n  /*function uploadWeight(string memory _name) public returns (string memory){\r\n    require(bytes(_name).length > 0);\r\n    mformCount++;\r\n    require(msg.sender!=address(0));\r\n    mforms[mformCount] = Form(_name);\r\n    weight = _name;\r\n    //emit NameCreated(_name, msg.sender);\r\n\r\n    return weight;\r\n  }*/\r\n  \r\n  /*function uploadBg(string memory _name) public returns (string memory){\r\n    require(bytes(_name).length > 0);\r\n    mformCount++;\r\n    require(msg.sender!=address(0));\r\n    mforms[mformCount] = Form(_name);\r\n    blood = _name;\r\n    //emit NameCreated(_name, msg.sender);\r\n\r\n    return blood;\r\n  }*/\r\n  \r\n  /*function uploadVacc(string memory _name) public returns (string memory){\r\n    require(bytes(_name).length > 0);\r\n    mformCount++;\r\n    require(msg.sender!=address(0));\r\n    mforms[mformCount] = Form(_name);\r\n    vacc = _name;\r\n    //emit NameCreated(_name, msg.sender);\r\n\r\n    return vacc;\r\n  }*/\r\n  \r\n  /*function uploadAller(string memory _name) public returns (string memory){\r\n    require(bytes(_name).length > 0);\r\n    mformCount++;\r\n    require(msg.sender!=address(0));\r\n    mforms[mformCount] = Form(_name);\r\n    all = _name;\r\n    //emit NameCreated(_name, msg.sender);\r\n\r\n    return all;\r\n  }*/\r\n  \r\n  /*function uploadPres(string memory _name) public returns (string memory){\r\n    require(bytes(_name).length > 0);\r\n    mformCount++;\r\n    require(msg.sender!=address(0));\r\n    mforms[mformCount] = Form(_name);\r\n    pres = _name;\r\n    //emit NameCreated(_name, msg.sender);\r\n\r\n    return pres;\r\n  }*/\r\n  \r\n  /*function uploadSym(string memory _name) public returns (string memory){\r\n    require(bytes(_name).length > 0);\r\n    mformCount++;\r\n    require(msg.sender!=address(0));\r\n    mforms[mformCount] = Form(_name);\r\n    sym = _name;\r\n    //emit NameCreated(_name, msg.sender);\r\n\r\n    return sym;\r\n  }*/\r\n  \r\n  /*function uploadTrav(string memory _name) public returns (string memory){\r\n    require(bytes(_name).length > 0);\r\n    mformCount++;\r\n    require(msg.sender!=address(0));\r\n    mforms[mformCount] = Form(_name);\r\n    trav = _name;\r\n    //emit NameCreated(_name, msg.sender);\r\n\r\n    return trav;\r\n  }*/\r\n  \r\n  /*function uploadHist(string memory _name) public returns (string memory){\r\n    require(bytes(_name).length > 0);\r\n    mformCount++;\r\n    require(msg.sender!=address(0));\r\n    mforms[mformCount] = Form(_name);\r\n    his = _name;\r\n    //emit NameCreated(_name, msg.sender);\r\n\r\n    return his;\r\n  }*/\r\n  \r\n  /*function uploadEmNam(string memory _name) public returns (string memory){\r\n    require(bytes(_name).length > 0);\r\n    mformCount++;\r\n    require(msg.sender!=address(0));\r\n    mforms[mformCount] = Form(_name);\r\n    ename = _name;\r\n    //emit NameCreated(_name, msg.sender);\r\n\r\n    return ename;\r\n  }*/\r\n  \r\n  /*function uploadEmNo(string memory _name) public returns (string memory){\r\n    require(bytes(_name).length > 0);\r\n    mformCount++;\r\n    require(msg.sender!=address(0));\r\n    mforms[mformCount] = Form(_name);\r\n    eno = _name;\r\n    //emit NameCreated(_name, msg.sender);\r\n\r\n    return eno;\r\n  }*/\r\n  \r\n  /*function uploadExt(string memory _name) public returns (string memory){\r\n    require(bytes(_name).length > 0);\r\n    mformCount++;\r\n    require(msg.sender!=address(0));\r\n    mforms[mformCount] = Form(_name);\r\n    ex = _name;\r\n    //emit NameCreated(_name, msg.sender);\r\n\r\n    return ex;\r\n  }*/\r\n\r\n// function uploadForm(string memory _fullname, string memory _mail, string memory _phno, string memory _gender,\r\n// string memory _date, string memory _height, string memory _weight, string memory _blood, string memory _vacc, \r\n// string memory _all, string memory _pres, string memory _sym, string memory _trav, string memory _his, string memory _ename,\r\n// string memory _eno, string memory _ex) public {\r\n// // @notice Explain to an end user what this does\r\n// // @dev Explain to a developer any extra details\r\n// // @param Documents a parameter just like in doxygen (must be followed by parameter name)) \t\r\n//  \t// require(bytes(_fullname).length > 0);\r\n//  \t// require(bytes(_phno).length > 0);\r\n//  \t// require(bytes(_gender).length > 0);\r\n//  \trequire(msg.sender!=address(0));\r\n//  \tform = MedicalForm(_fullname, _mail, _phno, _gender, _date, _height, _weight, _blood, _vacc, _all, _pres, _sym, \r\n// \t _trav, _his, _ename, _eno, _ex, msg.sender);\r\n//  \t//emit FormCreated(_fullname, _phno, _gender, msg.sender);\r\n// }\r\n\r\nfunction uploadMedicalForm(string[] memory user_input) public {\r\n\trequire(msg.sender!=address(0));\r\n\tfullname = user_input[0];  \r\n\tmail = user_input[1];\r\n\tphno = user_input[2];\r\n\tgender = user_input[3];\r\n\tdate = user_input[4];\r\n\theight = user_input[5];\r\n\tweight = user_input[6];\r\n\tblood = user_input[7];\r\n\tvacc = user_input[8];\r\n\tall = user_input[9];\r\n\tpres = user_input[10];\r\n\tsym = user_input[11];\r\n\ttrav = user_input[12];\r\n\this = user_input[13];\r\n\tename = user_input[14];\r\n\teno = user_input[15];\r\n\tex = user_input[16];\r\n}\r\n\r\nfunction uploadDoc(string memory _docHash, string memory _description) public {\r\n  // Make sure the image hash exists\r\n    require(bytes(_docHash).length > 0);\r\n    // Make sure image description exists\r\n    require(bytes(_description).length > 0);\r\n    // Make sure uploader address exists\r\n    require(msg.sender!=address(0));\r\n\r\n    // Increment image id\r\n    docCount ++;\r\n\r\n    // Add Image to the contract\r\n    docs[docCount] = Doc(docCount, _docHash, _description, 0, msg.sender);\r\n    // Trigger an event\r\n    //emit DocCreated(docCount, _docHash, _description, 0, msg.sender);\r\n  }\r\n\r\n  function tipImageOwner(uint _id) public payable {\r\n    // Make sure the id is valid\r\n    require(_id > 0 && _id <= imageCount);\r\n    // Fetch the image\r\n    Image memory _image = images[_id];\r\n    // Fetch the author\r\n    address payable _author = _image.author;\r\n    // Pay the author by sending them Ether\r\n    address(_author).transfer(msg.value);\r\n    // Increment the tip amount\r\n    _image.tipAmount = _image.tipAmount + msg.value;\r\n    // Update the image\r\n    images[_id] = _image;\r\n    // Trigger an event\r\n    //emit ImageTipped(_id, _image.hash, _image.description, _image.tipAmount, _author);\r\n  }\r\n}\r\n",
  "sourcePath": "F:\\Docs\\DevelopmentEnv\\Dapps\\Ethernals\\ETHernals\\src\\contracts\\UBPP.sol",
  "compiler": {
    "name": "solc",
    "version": "0.5.16+commit.9c3226ce.Emscripten.clang"
  },
  "schemaVersion": "3.4.4",
  "updatedAt": "2022-03-24T18:33:09.899Z",
  "networkType": "ethereum",
  "devdoc": {
    "methods": {}
  },
  "userdoc": {
    "methods": {}
  }
}